2017/09/19 00:00:00:000: SysLog: opened for next day: ../../../logs/sell/BOAFXTRADES_20170919.log
2017/09/19 13:59:58:719: FIXConnectionData: Sending data on connection {BOAFXTRADES} [8=FIX.4.3|9=0078|35=A|49=Portware2Trades|56=BOA-FIX|34=141566|52=20170919-17:59:58|98=0|108=30|10=139|]
2017/09/19 13:59:58:737: FIXPump: Received data on connection {BOAFXTRADES} [8=FIX.4.3|9=130|35=5|49=BOA-FIX|56=Portware2Trades|34=18896|52=20170919-17:59:58|58=MsgSeqNum too low, expecting 148414 but received 141566 Logon|10=196|]
2017/09/19 13:59:58:907: FIXConnectionData: Sending data on connection {BOAFXTRADES} [8=FIX.4.3|9=0164|35=5|49=Portware2Trades|56=BOA-FIX|34=141567|52=20170919-17:59:58|58=00100000001n3zh_9327- CODE: 1-200-5: Expecting Logon but got Logout: disconnecting immediately|10=240|]
2017/09/19 13:59:58:907: FIXConnectionData_BOAFXTRADES: Connection closed on SyncTransportSocket[local=10.63.23.229:32982 remote=199.43.67.41:9192]
2017/09/19 14:01:06:539: FIXConnectionData: Sending data on connection {BOAFXTRADES} [8=FIX.4.3|9=0078|35=A|49=Portware2Trades|56=BOA-FIX|34=148414|52=20170919-18:01:06|98=0|108=30|10=119|]
2017/09/19 14:01:06:549: FIXPump: Received data on connection {BOAFXTRADES} [8=FIX.4.3|9=77|35=A|56=Portware2Trades|49=BOA-FIX|52=20170919-18:01:06|34=18897|108=30|98=0|10=241|]
2017/09/19 14:01:06:577: FIXConnectionData: Sending data on connection {BOAFXTRADES} [8=FIX.4.3|9=0083|35=2|49=Portware2Trades|56=BOA-FIX|34=148415|52=20170919-18:01:06|7=12041|16=18896|10=110|]
2017/09/19 14:01:06:588: FIXPump: Received data on connection {BOAFXTRADES} [8=FIX.4.3|9=85|35=4|49=BOA-FIX|56=Portware2Trades|34=12041|52=20170919-18:01:06|43=Y|123=Y|36=12043|10=125|]
2017/09/19 14:01:06:588: FIXPump: Received data on connection {BOAFXTRADES} [8=FIX.4.3|9=138|35=3|56=Portware2Trades|49=BOA-FIX|52=20170919-18:01:06|34=12043|43=Y|122=20170914-14:40:18|45=141565|371=0|372=Q|373=5|58=Internal error|10=112|]
2017/09/19 14:01:06:588: FIXPump: Received data on connection {BOAFXTRADES} [8=FIX.4.3|9=138|35=3|56=Portware2Trades|49=BOA-FIX|52=20170919-18:01:06|34=12044|43=Y|122=20170914-14:40:18|45=141566|371=0|372=Q|373=5|58=Internal error|10=114|]
2017/09/19 14:01:06:589: FIXPump: Received data on connection {BOAFXTRADES} [8=FIX.4.3|9=138|35=3|56=Portware2Trades|49=BOA-FIX|52=20170919-18:01:06|34=12045|43=Y|122=20170914-14:40:18|45=141567|371=0|372=Q|373=5|58=Internal error|10=116|]
2017/09/19 14:01:06:589: FIXPump: Received data on connection {BOAFXTRADES} [8=FIX.4.3|9=138|35=3|56=Portware2Trades|49=BOA-FIX|52=20170919-18:01:06|34=12046|43=Y|122=20170914-14:40:18|45=141568|371=0|372=Q|373=5|58=Internal error|10=118|]
2017/09/19 14:01:06:589: FIXPump: Received data on connection {BOAFXTRADES} [8=FIX.4.3|9=138|35=3|56=Portware2Trades|49=BOA-FIX|52=20170919-18:01:06|34=12047|43=Y|122=20170914-14:40:18|45=141569|371=0|372=Q|373=5|58=Internal error|10=120|]
2017/09/19 14:01:06:589: FIXPump: Received data on connection {BOAFXTRADES} [8=FIX.4.3|9=138|35=3|56=Portware2Trades|49=BOA-FIX|52=20170919-18:01:06|34=12048|43=Y|122=20170914-14:40:18|45=141570|371=0|372=Q|373=5|58=Internal error|10=113|]
2017/09/19 14:01:06:589: FIXPump: Received data on connection {BOAFXTRADES} [8=FIX.4.3|9=138|35=3|56=Portware2Trades|49=BOA-FIX|52=20170919-18:01:06|34=12049|43=Y|122=20170914-14:40:18|45=141571|371=0|372=Q|373=5|58=Internal error|10=115|]
2017/09/19 14:01:06:589: FIXPump: Received data on connection {BOAFXTRADES} [8=FIX.4.3|9=138|35=3|56=Portware2Trades|49=BOA-FIX|52=20170919-18:01:06|34=12050|43=Y|122=20170914-14:40:18|45=141572|371=0|372=Q|373=5|58=Internal error|10=108|]
2017/09/19 14:01:06:589: FIXPump: Received data on connection {BOAFXTRADES} [8=FIX.4.3|9=138|35=3|56=Portware2Trades|49=BOA-FIX|52=20170919-18:01:06|34=12051|43=Y|122=20170914-14:40:18|45=141573|371=0|372=Q|373=5|58=Internal error|10=110|]
2017/09/19 14:01:06:589: FIXPump: Received data on connection {BOAFXTRADES} [8=FIX.4.3|9=138|35=3|56=Portware2Trades|49=BOA-FIX|52=20170919-18:01:06|34=12052|43=Y|122=20170914-14:40:18|45=141574|371=0|372=Q|373=5|58=Internal error|10=112|]
2017/09/19 14:01:06:589: FIXPump: Received data on connection {BOAFXTRADES} [8=FIX.4.3|9=138|35=3|56=Portware2Trades|49=BOA-FIX|52=20170919-18:01:06|34=12053|43=Y|122=20170914-14:40:18|45=141575|371=0|372=Q|373=5|58=Internal error|10=114|]
2017/09/19 14:01:06:589: FIXPump: Received data on connection {BOAFXTRADES} [8=FIX.4.3|9=138|35=3|56=Portware2Trades|49=BOA-FIX|52=20170919-18:01:06|34=12054|43=Y|122=20170914-14:40:18|45=141576|371=0|372=Q|373=5|58=Internal error|10=116|]
2017/09/19 14:01:06:589: FIXPump: Received data on connection {BOAFXTRADES} [8=FIX.4.3|9=138|35=3|56=Portware2Trades|49=BOA-FIX|52=20170919-18:01:06|34=12055|43=Y|122=20170914-14:40:18|45=141577|371=0|372=Q|373=5|58=Internal error|10=118|]
2017/09/19 14:01:06:589: FIXPump: Received data on connection {BOAFXTRADES} [8=FIX.4.3|9=138|35=3|56=Portware2Trades|49=BOA-FIX|52=20170919-18:01:06|34=12056|43=Y|122=20170914-14:40:18|45=141578|371=0|372=Q|373=5|58=Internal error|10=120|]
2017/09/19 14:01:06:589: FIXPump: Received data on connection {BOAFXTRADES} [8=FIX.4.3|9=138|35=3|56=Portware2Trades|49=BOA-FIX|52=20170919-18:01:06|34=12057|43=Y|122=20170914-14:40:18|45=141579|371=0|372=Q|373=5|58=Internal error|10=122|]
2017/09/19 14:01:06:589: FIXPump: Received data on connection {BOAFXTRADES} [8=FIX.4.3|9=138|35=3|56=Portware2Trades|49=BOA-FIX|52=20170919-18:01:06|34=12058|43=Y|122=20170914-14:40:18|45=141580|371=0|372=Q|373=5|58=Internal error|10=115|]
2017/09/19 14:01:06:589: FIXPump: Received data on connection {BOAFXTRADES} [8=FIX.4.3|9=138|35=3|56=Portware2Trades|49=BOA-FIX|52=20170919-18:01:06|34=12059|43=Y|122=20170914-14:40:18|45=141581|371=0|372=Q|373=5|58=Internal error|10=117|]
2017/09/19 14:01:06:589: FIXPump: Received data on connection {BOAFXTRADES} [8=FIX.4.3|9=138|35=3|56=Portware2Trades|49=BOA-FIX|52=20170919-18:01:06|34=12060|43=Y|122=20170914-14:40:18|45=141582|371=0|372=Q|373=5|58=Internal error|10=110|]
2017/09/19 14:01:06:589: FIXPump: Received data on connection {BOAFXTRADES} [8=FIX.4.3|9=138|35=3|56=Portware2Trades|49=BOA-FIX|52=20170919-18:01:06|34=12061|43=Y|122=20170914-14:40:18|45=141583|371=0|372=Q|373=5|58=Internal error|10=112|]
2017/09/19 14:01:06:589: FIXPump: Received data on connection {BOAFXTRADES} [8=FIX.4.3|9=138|35=3|56=Portware2Trades|49=BOA-FIX|52=20170919-18:01:06|34=12062|43=Y|122=20170914-14:40:18|45=141584|371=0|372=Q|373=5|58=Internal error|10=114|]
2017/09/19 14:01:06:589: FIXPump: Received data on connection {BOAFXTRADES} [8=FIX.4.3|9=138|35=3|56=Portware2Trades|49=BOA-FIX|52=20170919-18:01:06|34=12063|43=Y|122=20170914-14:40:18|45=141585|371=0|372=Q|373=5|58=Internal error|10=116|]
2017/09/19 14:01:06:589: FIXPump: Received data on connection {BOAFXTRADES} [8=FIX.4.3|9=138|35=3|56=Portware2Trades|49=BOA-FIX|52=20170919-18:01:06|34=12064|43=Y|122=20170914-14:40:18|45=141586|371=0|372=Q|373=5|58=Internal error|10=118|]
2017/09/19 14:01:06:589: FIXPump: Received data on connection {BOAFXTRADES} [8=FIX.4.3|9=138|35=3|56=Portware2Trades|49=BOA-FIX|52=20170919-18:01:06|34=12065|43=Y|122=20170914-14:40:18|45=141587|371=0|372=Q|373=5|58=Internal error|10=120|]
2017/09/19 14:01:06:589: FIXPump: Received data on connection {BOAFXTRADES} [8=FIX.4.3|9=138|35=3|56=Portware2Trades|49=BOA-FIX|52=20170919-18:01:06|34=12066|43=Y|122=20170914-14:40:18|45=141588|371=0|372=Q|373=5|58=Internal error|10=122|]
2017/09/19 14:01:06:589: FIXPump: Received data on connection {BOAFXTRADES} [8=FIX.4.3|9=138|35=3|56=Portware2Trades|49=BOA-FIX|52=20170919-18:01:06|34=12067|43=Y|122=20170914-14:40:18|45=141589|371=0|372=Q|373=5|58=Internal error|10=124|]
2017/09/19 14:01:06:589: FIXPump: Received data on connection {BOAFXTRADES} [8=FIX.4.3|9=138|35=3|56=Portware2Trades|49=BOA-FIX|52=20170919-18:01:06|34=12068|43=Y|122=20170914-14:40:18|45=141590|371=0|372=Q|373=5|58=Internal error|10=117|]
2017/09/19 14:01:06:589: FIXPump: Received data on connection {BOAFXTRADES} [8=FIX.4.3|9=138|35=3|56=Portware2Trades|49=BOA-FIX|52=20170919-18:01:06|34=12069|43=Y|122=20170914-14:40:18|45=141591|371=0|372=Q|373=5|58=Internal error|10=119|]
2017/09/19 14:01:06:593: FIXPump: Received data on connection {BOAFXTRADES} [8=FIX.4.3|9=138|35=3|56=Portware2Trades|49=BOA-FIX|52=20170919-18:01:06|34=12070|43=Y|122=20170914-14:40:18|45=141592|371=0|372=Q|373=5|58=Internal error|10=112|]
2017/09/19 14:01:06:593: FIXPump: Received data on connection {BOAFXTRADES} [8=FIX.4.3|9=138|35=3|56=Portware2Trades|49=BOA-FIX|52=20170919-18:01:06|34=12071|43=Y|122=20170914-14:40:18|45=141593|371=0|372=Q|373=5|58=Internal error|10=114|]
2017/09/19 14:01:06:593: FIXPump: Received data on connection {BOAFXTRADES} [8=FIX.4.3|9=138|35=3|56=Portware2Trades|49=BOA-FIX|52=20170919-18:01:06|34=12072|43=Y|122=20170914-14:40:18|45=141594|371=0|372=Q|373=5|58=Internal error|10=116|]
2017/09/19 14:01:06:593: FIXPump: Received data on connection {BOAFXTRADES} [8=FIX.4.3|9=138|35=3|56=Portware2Trades|49=BOA-FIX|52=20170919-18:01:06|34=12073|43=Y|122=20170914-14:40:18|45=141595|371=0|372=Q|373=5|58=Internal error|10=118|]
2017/09/19 14:01:06:593: FIXPump: Received data on connection {BOAFXTRADES} [8=FIX.4.3|9=138|35=3|56=Portware2Trades|49=BOA-FIX|52=20170919-18:01:06|34=12074|43=Y|122=20170914-14:40:18|45=141596|371=0|372=Q|373=5|58=Internal error|10=120|]
2017/09/19 14:01:06:593: FIXPump: Received data on connection {BOAFXTRADES} [8=FIX.4.3|9=138|35=3|56=Portware2Trades|49=BOA-FIX|52=20170919-18:01:06|34=12075|43=Y|122=20170914-14:40:18|45=141597|371=0|372=Q|373=5|58=Internal error|10=122|]
2017/09/19 14:01:06:593: FIXPump: Received data on connection {BOAFXTRADES} [8=FIX.4.3|9=138|35=3|56=Portware2Trades|49=BOA-FIX|52=20170919-18:01:06|34=12076|43=Y|122=20170914-14:40:18|45=141598|371=0|372=Q|373=5|58=Internal error|10=124|]
2017/09/19 14:01:06:593: FIXPump: Received data on connection {BOAFXTRADES} [8=FIX.4.3|9=138|35=3|56=Portware2Trades|49=BOA-FIX|52=20170919-18:01:06|34=12077|43=Y|122=20170914-14:40:18|45=141599|371=0|372=Q|373=5|58=Internal error|10=126|]
2017/09/19 14:01:06:593: FIXPump: Received data on connection {BOAFXTRADES} [8=FIX.4.3|9=138|35=3|56=Portware2Trades|49=BOA-FIX|52=20170919-18:01:06|34=12078|43=Y|122=20170914-14:40:18|45=141600|371=0|372=Q|373=5|58=Internal error|10=110|]
2017/09/19 14:01:06:593: FIXPump: Received data on connection {BOAFXTRADES} [8=FIX.4.3|9=138|35=3|56=Portware2Trades|49=BOA-FIX|52=20170919-18:01:06|34=12079|43=Y|122=20170914-14:40:18|45=141601|371=0|372=Q|373=5|58=Internal error|10=112|]
2017/09/19 14:01:06:593: FIXPump: Received data on connection {BOAFXTRADES} [8=FIX.4.3|9=138|35=3|56=Portware2Trades|49=BOA-FIX|52=20170919-18:01:06|34=12080|43=Y|122=20170914-14:40:18|45=141602|371=0|372=Q|373=5|58=Internal error|10=105|]
2017/09/19 14:01:06:593: FIXPump: Received data on connection {BOAFXTRADES} [8=FIX.4.3|9=138|35=3|56=Portware2Trades|49=BOA-FIX|52=20170919-18:01:06|34=12081|43=Y|122=20170914-14:40:18|45=141603|371=0|372=Q|373=5|58=Internal error|10=107|]
2017/09/19 14:01:06:593: FIXPump: Received data on connection {BOAFXTRADES} [8=FIX.4.3|9=138|35=3|56=Portware2Trades|49=BOA-FIX|52=20170919-18:01:06|34=12082|43=Y|122=20170914-14:40:18|45=141604|371=0|372=Q|373=5|58=Internal error|10=109|]
2017/09/19 14:01:06:593: FIXPump: Received data on connection {BOAFXTRADES} [8=FIX.4.3|9=138|35=3|56=Portware2Trades|49=BOA-FIX|52=20170919-18:01:06|34=12083|43=Y|122=20170914-14:40:18|45=141605|371=0|372=Q|373=5|58=Internal error|10=111|]
2017/09/19 14:01:06:593: FIXPump: Received data on connection {BOAFXTRADES} [8=FIX.4.3|9=138|35=3|56=Portware2Trades|49=BOA-FIX|52=20170919-18:01:06|34=12084|43=Y|122=20170914-14:40:18|45=141606|371=0|372=Q|373=5|58=Internal error|10=113|]
2017/09/19 14:01:06:593: FIXPump: Received data on connection {BOAFXTRADES} [8=FIX.4.3|9=138|35=3|56=Portware2Trades|49=BOA-FIX|52=20170919-18:01:06|34=12085|43=Y|122=20170914-14:40:18|45=141607|371=0|372=Q|373=5|58=Internal error|10=115|]
2017/09/19 14:01:06:593: FIXPump: Received data on connection {BOAFXTRADES} [8=FIX.4.3|9=138|35=3|56=Portware2Trades|49=BOA-FIX|52=20170919-18:01:06|34=12086|43=Y|122=20170914-14:40:18|45=141608|371=0|372=Q|373=5|58=Internal error|10=117|]
2017/09/19 14:01:06:593: FIXPump: Received data on connection {BOAFXTRADES} [8=FIX.4.3|9=138|35=3|56=Portware2Trades|49=BOA-FIX|52=20170919-18:01:06|34=12087|43=Y|122=20170914-14:40:18|45=141609|371=0|372=Q|373=5|58=Internal error|10=119|]
2017/09/19 14:01:06:593: FIXPump: Received data on connection {BOAFXTRADES} [8=FIX.4.3|9=138|35=3|56=Portware2Trades|49=BOA-FIX|52=20170919-18:01:06|34=12088|43=Y|122=20170914-14:40:18|45=141610|371=0|372=Q|373=5|58=Internal error|10=112|]
2017/09/19 14:01:06:593: FIXPump: Received data on connection {BOAFXTRADES} [8=FIX.4.3|9=138|35=3|56=Portware2Trades|49=BOA-FIX|52=20170919-18:01:06|34=12089|43=Y|122=20170914-14:40:18|45=141611|371=0|372=Q|373=5|58=Internal error|10=114|]
2017/09/19 14:01:06:593: FIXPump: Received data on connection {BOAFXTRADES} [8=FIX.4.3|9=138|35=3|56=Portware2Trades|49=BOA-FIX|52=20170919-18:01:06|34=12090|43=Y|122=20170914-14:40:18|45=141612|371=0|372=Q|373=5|58=Internal error|10=107|]
2017/09/19 14:01:06:593: FIXPump: Received data on connection {BOAFXTRADES} [8=FIX.4.3|9=138|35=3|56=Portware2Trades|49=BOA-FIX|52=20170919-18:01:06|34=12091|43=Y|122=20170914-14:40:18|45=141613|371=0|372=Q|373=5|58=Internal error|10=109|]
2017/09/19 14:01:06:593: FIXPump: Received data on connection {BOAFXTRADES} [8=FIX.4.3|9=138|35=3|56=Portware2Trades|49=BOA-FIX|52=20170919-18:01:06|34=12092|43=Y|122=20170914-14:40:18|45=141614|371=0|372=Q|373=5|58=Internal error|10=111|]
2017/09/19 14:01:06:593: FIXPump: Received data on connection {BOAFXTRADES} [8=FIX.4.3|9=138|35=3|56=Portware2Trades|49=BOA-FIX|52=20170919-18:01:06|34=12093|43=Y|122=20170914-14:40:18|45=141615|371=0|372=Q|373=5|58=Internal error|10=113|]
2017/09/19 14:01:06:593: FIXPump: Received data on connection {BOAFXTRADES} [8=FIX.4.3|9=138|35=3|56=Portware2Trades|49=BOA-FIX|52=20170919-18:01:06|34=12094|43=Y|122=20170914-14:40:18|45=141616|371=0|372=Q|373=5|58=Internal error|10=115|]
2017/09/19 14:01:06:593: FIXPump: Received data on connection {BOAFXTRADES} [8=FIX.4.3|9=138|35=3|56=Portware2Trades|49=BOA-FIX|52=20170919-18:01:06|34=12095|43=Y|122=20170914-14:40:18|45=141617|371=0|372=Q|373=5|58=Internal error|10=117|]
2017/09/19 14:01:06:593: FIXPump: Received data on connection {BOAFXTRADES} [8=FIX.4.3|9=138|35=3|56=Portware2Trades|49=BOA-FIX|52=20170919-18:01:06|34=12096|43=Y|122=20170914-14:40:18|45=141618|371=0|372=Q|373=5|58=Internal error|10=119|]
2017/09/19 14:01:06:593: FIXPump: Received data on connection {BOAFXTRADES} [8=FIX.4.3|9=138|35=3|56=Portware2Trades|49=BOA-FIX|52=20170919-18:01:06|34=12097|43=Y|122=20170914-14:40:18|45=141619|371=0|372=Q|373=5|58=Internal error|10=121|]
2017/09/19 14:01:06:593: FIXPump: Received data on connection {BOAFXTRADES} [8=FIX.4.3|9=138|35=3|56=Portware2Trades|49=BOA-FIX|52=20170919-18:01:06|34=12098|43=Y|122=20170914-14:40:18|45=141620|371=0|372=Q|373=5|58=Internal error|10=114|]
2017/09/19 14:01:06:593: FIXPump: Received data on connection {BOAFXTRADES} [8=FIX.4.3|9=138|35=3|56=Portware2Trades|49=BOA-FIX|52=20170919-18:01:06|34=12099|43=Y|122=20170914-14:40:18|45=141621|371=0|372=Q|373=5|58=Internal error|10=116|]
2017/09/19 14:01:06:593: FIXPump: Received data on connection {BOAFXTRADES} [8=FIX.4.3|9=138|35=3|56=Portware2Trades|49=BOA-FIX|52=20170919-18:01:06|34=12100|43=Y|122=20170914-14:40:18|45=141622|371=0|372=Q|373=5|58=Internal error|10=100|]
2017/09/19 14:01:06:593: FIXPump: Received data on connection {BOAFXTRADES} [8=FIX.4.3|9=138|35=3|56=Portware2Trades|49=BOA-FIX|52=20170919-18:01:06|34=12101|43=Y|122=20170914-14:40:18|45=141623|371=0|372=Q|373=5|58=Internal error|10=102|]
2017/09/19 14:01:06:593: FIXPump: Received data on connection {BOAFXTRADES} [8=FIX.4.3|9=138|35=3|56=Portware2Trades|49=BOA-FIX|52=20170919-18:01:06|34=12102|43=Y|122=20170914-14:40:18|45=141624|371=0|372=Q|373=5|58=Internal error|10=104|]
2017/09/19 14:01:06:593: FIXPump: Received data on connection {BOAFXTRADES} [8=FIX.4.3|9=138|35=3|56=Portware2Trades|49=BOA-FIX|52=20170919-18:01:06|34=12103|43=Y|122=20170914-14:40:18|45=141625|371=0|372=Q|373=5|58=Internal error|10=106|]
2017/09/19 14:01:06:593: FIXPump: Received data on connection {BOAFXTRADES} [8=FIX.4.3|9=138|35=3|56=Portware2Trades|49=BOA-FIX|52=20170919-18:01:06|34=12104|43=Y|122=20170914-14:40:18|45=141626|371=0|372=Q|373=5|58=Internal error|10=108|]
2017/09/19 14:01:06:593: FIXPump: Received data on connection {BOAFXTRADES} [8=FIX.4.3|9=138|35=3|56=Portware2Trades|49=BOA-FIX|52=20170919-18:01:06|34=12105|43=Y|122=20170914-14:40:18|45=141627|371=0|372=Q|373=5|58=Internal error|10=110|]
2017/09/19 14:01:06:593: FIXPump: Received data on connection {BOAFXTRADES} [8=FIX.4.3|9=138|35=3|56=Portware2Trades|49=BOA-FIX|52=20170919-18:01:06|34=12106|43=Y|122=20170914-14:40:18|45=141628|371=0|372=Q|373=5|58=Internal error|10=112|]
2017/09/19 14:01:06:593: FIXPump: Received data on connection {BOAFXTRADES} [8=FIX.4.3|9=138|35=3|56=Portware2Trades|49=BOA-FIX|52=20170919-18:01:06|34=12107|43=Y|122=20170914-14:40:18|45=141629|371=0|372=Q|373=5|58=Internal error|10=114|]
2017/09/19 14:01:06:593: FIXPump: Received data on connection {BOAFXTRADES} [8=FIX.4.3|9=138|35=3|56=Portware2Trades|49=BOA-FIX|52=20170919-18:01:06|34=12108|43=Y|122=20170914-14:40:18|45=141630|371=0|372=Q|373=5|58=Internal error|10=107|]
2017/09/19 14:01:06:593: FIXPump: Received data on connection {BOAFXTRADES} [8=FIX.4.3|9=138|35=3|56=Portware2Trades|49=BOA-FIX|52=20170919-18:01:06|34=12109|43=Y|122=20170914-14:40:18|45=141631|371=0|372=Q|373=5|58=Internal error|10=109|]
2017/09/19 14:01:06:593: FIXPump: Received data on connection {BOAFXTRADES} [8=FIX.4.3|9=138|35=3|56=Portware2Trades|49=BOA-FIX|52=20170919-18:01:06|34=12110|43=Y|122=20170914-14:40:18|45=141632|371=0|372=Q|373=5|58=Internal error|10=102|]
2017/09/19 14:01:06:593: FIXPump: Received data on connection {BOAFXTRADES} [8=FIX.4.3|9=138|35=3|56=Portware2Trades|49=BOA-FIX|52=20170919-18:01:06|34=12111|43=Y|122=20170914-14:40:18|45=141633|371=0|372=Q|373=5|58=Internal error|10=104|]
2017/09/19 14:01:06:593: FIXPump: Received data on connection {BOAFXTRADES} [8=FIX.4.3|9=138|35=3|56=Portware2Trades|49=BOA-FIX|52=20170919-18:01:06|34=12112|43=Y|122=20170914-14:40:18|45=141634|371=0|372=Q|373=5|58=Internal error|10=106|]
2017/09/19 14:01:06:593: FIXPump: Received data on connection {BOAFXTRADES} [8=FIX.4.3|9=138|35=3|56=Portware2Trades|49=BOA-FIX|52=20170919-18:01:06|34=12113|43=Y|122=20170914-14:40:18|45=141635|371=0|372=Q|373=5|58=Internal error|10=108|]
2017/09/19 14:01:06:593: FIXPump: Received data on connection {BOAFXTRADES} [8=FIX.4.3|9=138|35=3|56=Portware2Trades|49=BOA-FIX|52=20170919-18:01:06|34=12114|43=Y|122=20170914-14:40:18|45=141636|371=0|372=Q|373=5|58=Internal error|10=110|]
2017/09/19 14:01:06:593: FIXPump: Received data on connection {BOAFXTRADES} [8=FIX.4.3|9=138|35=3|56=Portware2Trades|49=BOA-FIX|52=20170919-18:01:06|34=12115|43=Y|122=20170914-14:40:18|45=141637|371=0|372=Q|373=5|58=Internal error|10=112|]
2017/09/19 14:01:06:593: FIXPump: Received data on connection {BOAFXTRADES} [8=FIX.4.3|9=138|35=3|56=Portware2Trades|49=BOA-FIX|52=20170919-18:01:06|34=12116|43=Y|122=20170914-14:40:18|45=141638|371=0|372=Q|373=5|58=Internal error|10=114|]
2017/09/19 14:01:06:593: FIXPump: Received data on connection {BOAFXTRADES} [8=FIX.4.3|9=138|35=3|56=Portware2Trades|49=BOA-FIX|52=20170919-18:01:06|34=12117|43=Y|122=20170914-14:40:18|45=141639|371=0|372=Q|373=5|58=Internal error|10=116|]
2017/09/19 14:01:06:593: FIXPump: Received data on connection {BOAFXTRADES} [8=FIX.4.3|9=138|35=3|56=Portware2Trades|49=BOA-FIX|52=20170919-18:01:06|34=12118|43=Y|122=20170914-14:40:18|45=141640|371=0|372=Q|373=5|58=Internal error|10=109|]
2017/09/19 14:01:06:593: FIXPump: Received data on connection {BOAFXTRADES} [8=FIX.4.3|9=138|35=3|56=Portware2Trades|49=BOA-FIX|52=20170919-18:01:06|34=12119|43=Y|122=20170914-14:40:18|45=141641|371=0|372=Q|373=5|58=Internal error|10=111|]
2017/09/19 14:01:06:593: FIXPump: Received data on connection {BOAFXTRADES} [8=FIX.4.3|9=138|35=3|56=Portware2Trades|49=BOA-FIX|52=20170919-18:01:06|34=12120|43=Y|122=20170914-14:40:18|45=141642|371=0|372=Q|373=5|58=Internal error|10=104|]
2017/09/19 14:01:06:593: FIXPump: Received data on connection {BOAFXTRADES} [8=FIX.4.3|9=138|35=3|56=Portware2Trades|49=BOA-FIX|52=20170919-18:01:06|34=12121|43=Y|122=20170914-14:40:18|45=141643|371=0|372=Q|373=5|58=Internal error|10=106|]
2017/09/19 14:01:06:594: FIXPump: Received data on connection {BOAFXTRADES} [8=FIX.4.3|9=138|35=3|56=Portware2Trades|49=BOA-FIX|52=20170919-18:01:06|34=12122|43=Y|122=20170914-14:40:18|45=141644|371=0|372=Q|373=5|58=Internal error|10=108|]
2017/09/19 14:01:06:594: FIXPump: Received data on connection {BOAFXTRADES} [8=FIX.4.3|9=138|35=3|56=Portware2Trades|49=BOA-FIX|52=20170919-18:01:06|34=12123|43=Y|122=20170914-14:40:18|45=141645|371=0|372=Q|373=5|58=Internal error|10=110|]
2017/09/19 14:01:06:594: FIXPump: Received data on connection {BOAFXTRADES} [8=FIX.4.3|9=138|35=3|56=Portware2Trades|49=BOA-FIX|52=20170919-18:01:06|34=12124|43=Y|122=20170914-14:40:18|45=141646|371=0|372=Q|373=5|58=Internal error|10=112|]
2017/09/19 14:01:06:598: FIXPump: Received data on connection {BOAFXTRADES} [8=FIX.4.3|9=138|35=3|56=Portware2Trades|49=BOA-FIX|52=20170919-18:01:06|34=12125|43=Y|122=20170914-14:40:18|45=141647|371=0|372=Q|373=5|58=Internal error|10=114|]
2017/09/19 14:01:06:598: FIXPump: Received data on connection {BOAFXTRADES} [8=FIX.4.3|9=138|35=3|56=Portware2Trades|49=BOA-FIX|52=20170919-18:01:06|34=12126|43=Y|122=20170914-14:40:18|45=141648|371=0|372=Q|373=5|58=Internal error|10=116|]
2017/09/19 14:01:06:598: FIXPump: Received data on connection {BOAFXTRADES} [8=FIX.4.3|9=138|35=3|56=Portware2Trades|49=BOA-FIX|52=20170919-18:01:06|34=12127|43=Y|122=20170914-14:40:18|45=141649|371=0|372=Q|373=5|58=Internal error|10=118|]
2017/09/19 14:01:06:598: FIXPump: Received data on connection {BOAFXTRADES} [8=FIX.4.3|9=138|35=3|56=Portware2Trades|49=BOA-FIX|52=20170919-18:01:06|34=12128|43=Y|122=20170914-14:40:18|45=141650|371=0|372=Q|373=5|58=Internal error|10=111|]
2017/09/19 14:01:06:598: FIXPump: Received data on connection {BOAFXTRADES} [8=FIX.4.3|9=138|35=3|56=Portware2Trades|49=BOA-FIX|52=20170919-18:01:06|34=12129|43=Y|122=20170914-14:40:18|45=141651|371=0|372=Q|373=5|58=Internal error|10=113|]
2017/09/19 14:01:06:598: FIXPump: Received data on connection {BOAFXTRADES} [8=FIX.4.3|9=138|35=3|56=Portware2Trades|49=BOA-FIX|52=20170919-18:01:06|34=12130|43=Y|122=20170914-14:40:18|45=141652|371=0|372=Q|373=5|58=Internal error|10=106|]
2017/09/19 14:01:06:598: FIXPump: Received data on connection {BOAFXTRADES} [8=FIX.4.3|9=138|35=3|56=Portware2Trades|49=BOA-FIX|52=20170919-18:01:06|34=12131|43=Y|122=20170914-14:40:18|45=141653|371=0|372=Q|373=5|58=Internal error|10=108|]
2017/09/19 14:01:06:598: FIXPump: Received data on connection {BOAFXTRADES} [8=FIX.4.3|9=138|35=3|56=Portware2Trades|49=BOA-FIX|52=20170919-18:01:06|34=12132|43=Y|122=20170914-14:40:18|45=141654|371=0|372=Q|373=5|58=Internal error|10=110|]
2017/09/19 14:01:06:598: FIXPump: Received data on connection {BOAFXTRADES} [8=FIX.4.3|9=138|35=3|56=Portware2Trades|49=BOA-FIX|52=20170919-18:01:06|34=12133|43=Y|122=20170914-14:40:18|45=141655|371=0|372=Q|373=5|58=Internal error|10=112|]
2017/09/19 14:01:06:606: FIXPump: Received data on connection {BOAFXTRADES} [8=FIX.4.3|9=138|35=3|56=Portware2Trades|49=BOA-FIX|52=20170919-18:01:06|34=12134|43=Y|122=20170914-14:40:18|45=141656|371=0|372=Q|373=5|58=Internal error|10=114|]
2017/09/19 14:01:06:606: FIXPump: Received data on connection {BOAFXTRADES} [8=FIX.4.3|9=138|35=3|56=Portware2Trades|49=BOA-FIX|52=20170919-18:01:06|34=12135|43=Y|122=20170914-14:40:18|45=141657|371=0|372=Q|373=5|58=Internal error|10=116|]
2017/09/19 14:01:06:606: FIXPump: Received data on connection {BOAFXTRADES} [8=FIX.4.3|9=138|35=3|56=Portware2Trades|49=BOA-FIX|52=20170919-18:01:06|34=12136|43=Y|122=20170914-14:40:18|45=141658|371=0|372=Q|373=5|58=Internal error|10=118|]
2017/09/19 14:01:06:606: FIXPump: Received data on connection {BOAFXTRADES} [8=FIX.4.3|9=138|35=3|56=Portware2Trades|49=BOA-FIX|52=20170919-18:01:06|34=12137|43=Y|122=20170914-14:40:18|45=141659|371=0|372=Q|373=5|58=Internal error|10=120|]
2017/09/19 14:01:06:606: FIXPump: Received data on connection {BOAFXTRADES} [8=FIX.4.3|9=138|35=3|56=Portware2Trades|49=BOA-FIX|52=20170919-18:01:06|34=12138|43=Y|122=20170914-14:40:18|45=141660|371=0|372=Q|373=5|58=Internal error|10=113|]
2017/09/19 14:01:06:606: FIXPump: Received data on connection {BOAFXTRADES} [8=FIX.4.3|9=138|35=3|56=Portware2Trades|49=BOA-FIX|52=20170919-18:01:06|34=12139|43=Y|122=20170914-14:40:18|45=141661|371=0|372=Q|373=5|58=Internal error|10=115|]
2017/09/19 14:01:06:606: FIXPump: Received data on connection {BOAFXTRADES} [8=FIX.4.3|9=138|35=3|56=Portware2Trades|49=BOA-FIX|52=20170919-18:01:06|34=12140|43=Y|122=20170914-14:40:18|45=141662|371=0|372=Q|373=5|58=Internal error|10=108|]
2017/09/19 14:01:06:606: FIXPump: Received data on connection {BOAFXTRADES} [8=FIX.4.3|9=138|35=3|56=Portware2Trades|49=BOA-FIX|52=20170919-18:01:06|34=12141|43=Y|122=20170914-14:40:18|45=141663|371=0|372=Q|373=5|58=Internal error|10=110|]
2017/09/19 14:01:06:606: FIXPump: Received data on connection {BOAFXTRADES} [8=FIX.4.3|9=138|35=3|56=Portware2Trades|49=BOA-FIX|52=20170919-18:01:06|34=12142|43=Y|122=20170914-14:40:18|45=141664|371=0|372=Q|373=5|58=Internal error|10=112|]
2017/09/19 14:01:06:606: FIXPump: Received data on connection {BOAFXTRADES} [8=FIX.4.3|9=138|35=3|56=Portware2Trades|49=BOA-FIX|52=20170919-18:01:06|34=12143|43=Y|122=20170914-14:40:18|45=141665|371=0|372=Q|373=5|58=Internal error|10=114|]
2017/09/19 14:01:06:606: FIXPump: Received data on connection {BOAFXTRADES} [8=FIX.4.3|9=138|35=3|56=Portware2Trades|49=BOA-FIX|52=20170919-18:01:06|34=12144|43=Y|122=20170914-14:40:18|45=141666|371=0|372=Q|373=5|58=Internal error|10=116|]
2017/09/19 14:01:06:606: FIXPump: Received data on connection {BOAFXTRADES} [8=FIX.4.3|9=138|35=3|56=Portware2Trades|49=BOA-FIX|52=20170919-18:01:06|34=12145|43=Y|122=20170914-14:40:18|45=141667|371=0|372=Q|373=5|58=Internal error|10=118|]
2017/09/19 14:01:06:606: FIXPump: Received data on connection {BOAFXTRADES} [8=FIX.4.3|9=138|35=3|56=Portware2Trades|49=BOA-FIX|52=20170919-18:01:06|34=12146|43=Y|122=20170914-14:40:18|45=141668|371=0|372=Q|373=5|58=Internal error|10=120|]
2017/09/19 14:01:06:606: FIXPump: Received data on connection {BOAFXTRADES} [8=FIX.4.3|9=138|35=3|56=Portware2Trades|49=BOA-FIX|52=20170919-18:01:06|34=12147|43=Y|122=20170914-14:40:18|45=141669|371=0|372=Q|373=5|58=Internal error|10=122|]
2017/09/19 14:01:06:606: FIXPump: Received data on connection {BOAFXTRADES} [8=FIX.4.3|9=138|35=3|56=Portware2Trades|49=BOA-FIX|52=20170919-18:01:06|34=12148|43=Y|122=20170914-14:40:18|45=141670|371=0|372=Q|373=5|58=Internal error|10=115|]
2017/09/19 14:01:06:606: FIXPump: Received data on connection {BOAFXTRADES} [8=FIX.4.3|9=138|35=3|56=Portware2Trades|49=BOA-FIX|52=20170919-18:01:06|34=12149|43=Y|122=20170914-14:40:18|45=141671|371=0|372=Q|373=5|58=Internal error|10=117|]
2017/09/19 14:01:06:606: FIXPump: Received data on connection {BOAFXTRADES} [8=FIX.4.3|9=138|35=3|56=Portware2Trades|49=BOA-FIX|52=20170919-18:01:06|34=12150|43=Y|122=20170914-14:40:18|45=141672|371=0|372=Q|373=5|58=Internal error|10=110|]
2017/09/19 14:01:06:606: FIXPump: Received data on connection {BOAFXTRADES} [8=FIX.4.3|9=138|35=3|56=Portware2Trades|49=BOA-FIX|52=20170919-18:01:06|34=12151|43=Y|122=20170914-14:40:18|45=141673|371=0|372=Q|373=5|58=Internal error|10=112|]
2017/09/19 14:01:06:606: FIXPump: Received data on connection {BOAFXTRADES} [8=FIX.4.3|9=138|35=3|56=Portware2Trades|49=BOA-FIX|52=20170919-18:01:06|34=12152|43=Y|122=20170914-14:40:18|45=141674|371=0|372=Q|373=5|58=Internal error|10=114|]
2017/09/19 14:01:06:606: FIXPump: Received data on connection {BOAFXTRADES} [8=FIX.4.3|9=138|35=3|56=Portware2Trades|49=BOA-FIX|52=20170919-18:01:06|34=12153|43=Y|122=20170914-14:40:18|45=141675|371=0|372=Q|373=5|58=Internal error|10=116|]
2017/09/19 14:01:06:606: FIXPump: Received data on connection {BOAFXTRADES} [8=FIX.4.3|9=138|35=3|56=Portware2Trades|49=BOA-FIX|52=20170919-18:01:06|34=12154|43=Y|122=20170914-14:40:18|45=141676|371=0|372=Q|373=5|58=Internal error|10=118|]
2017/09/19 14:01:06:606: FIXPump: Received data on connection {BOAFXTRADES} [8=FIX.4.3|9=138|35=3|56=Portware2Trades|49=BOA-FIX|52=20170919-18:01:06|34=12155|43=Y|122=20170914-14:40:18|45=141677|371=0|372=Q|373=5|58=Internal error|10=120|]
2017/09/19 14:01:06:606: FIXPump: Received data on connection {BOAFXTRADES} [8=FIX.4.3|9=138|35=3|56=Portware2Trades|49=BOA-FIX|52=20170919-18:01:06|34=12156|43=Y|122=20170914-14:40:18|45=141678|371=0|372=Q|373=5|58=Internal error|10=122|]
2017/09/19 14:01:06:606: FIXPump: Received data on connection {BOAFXTRADES} [8=FIX.4.3|9=138|35=3|56=Portware2Trades|49=BOA-FIX|52=20170919-18:01:06|34=12157|43=Y|122=20170914-14:40:18|45=141679|371=0|372=Q|373=5|58=Internal error|10=124|]
2017/09/19 14:01:06:606: FIXPump: Received data on connection {BOAFXTRADES} [8=FIX.4.3|9=138|35=3|56=Portware2Trades|49=BOA-FIX|52=20170919-18:01:06|34=12158|43=Y|122=20170914-14:40:18|45=141680|371=0|372=Q|373=5|58=Internal error|10=117|]
2017/09/19 14:01:06:606: FIXPump: Received data on connection {BOAFXTRADES} [8=FIX.4.3|9=138|35=3|56=Portware2Trades|49=BOA-FIX|52=20170919-18:01:06|34=12159|43=Y|122=20170914-14:40:18|45=141681|371=0|372=Q|373=5|58=Internal error|10=119|]
2017/09/19 14:01:06:606: FIXPump: Received data on connection {BOAFXTRADES} [8=FIX.4.3|9=138|35=3|56=Portware2Trades|49=BOA-FIX|52=20170919-18:01:06|34=12160|43=Y|122=20170914-14:40:18|45=141682|371=0|372=Q|373=5|58=Internal error|10=112|]
2017/09/19 14:01:06:606: FIXPump: Received data on connection {BOAFXTRADES} [8=FIX.4.3|9=138|35=3|56=Portware2Trades|49=BOA-FIX|52=20170919-18:01:06|34=12161|43=Y|122=20170914-14:40:18|45=141683|371=0|372=Q|373=5|58=Internal error|10=114|]
2017/09/19 14:01:06:606: FIXPump: Received data on connection {BOAFXTRADES} [8=FIX.4.3|9=138|35=3|56=Portware2Trades|49=BOA-FIX|52=20170919-18:01:06|34=12162|43=Y|122=20170914-14:40:18|45=141684|371=0|372=Q|373=5|58=Internal error|10=116|]
2017/09/19 14:01:06:606: FIXPump: Received data on connection {BOAFXTRADES} [8=FIX.4.3|9=138|35=3|56=Portware2Trades|49=BOA-FIX|52=20170919-18:01:06|34=12163|43=Y|122=20170914-14:40:18|45=141685|371=0|372=Q|373=5|58=Internal error|10=118|]
2017/09/19 14:01:06:606: FIXPump: Received data on connection {BOAFXTRADES} [8=FIX.4.3|9=138|35=3|56=Portware2Trades|49=BOA-FIX|52=20170919-18:01:06|34=12164|43=Y|122=20170914-14:40:18|45=141686|371=0|372=Q|373=5|58=Internal error|10=120|]
2017/09/19 14:01:06:606: FIXPump: Received data on connection {BOAFXTRADES} [8=FIX.4.3|9=138|35=3|56=Portware2Trades|49=BOA-FIX|52=20170919-18:01:06|34=12165|43=Y|122=20170914-14:40:18|45=141687|371=0|372=Q|373=5|58=Internal error|10=122|]
2017/09/19 14:01:06:606: FIXPump: Received data on connection {BOAFXTRADES} [8=FIX.4.3|9=138|35=3|56=Portware2Trades|49=BOA-FIX|52=20170919-18:01:06|34=12166|43=Y|122=20170914-14:40:18|45=141688|371=0|372=Q|373=5|58=Internal error|10=124|]
2017/09/19 14:01:06:606: FIXPump: Received data on connection {BOAFXTRADES} [8=FIX.4.3|9=138|35=3|56=Portware2Trades|49=BOA-FIX|52=20170919-18:01:06|34=12167|43=Y|122=20170914-14:40:18|45=141689|371=0|372=Q|373=5|58=Internal error|10=126|]
2017/09/19 14:01:06:606: FIXPump: Received data on connection {BOAFXTRADES} [8=FIX.4.3|9=138|35=3|56=Portware2Trades|49=BOA-FIX|52=20170919-18:01:06|34=12168|43=Y|122=20170914-14:40:18|45=141690|371=0|372=Q|373=5|58=Internal error|10=119|]
2017/09/19 14:01:06:606: FIXPump: Received data on connection {BOAFXTRADES} [8=FIX.4.3|9=138|35=3|56=Portware2Trades|49=BOA-FIX|52=20170919-18:01:06|34=12169|43=Y|122=20170914-14:40:18|45=141691|371=0|372=Q|373=5|58=Internal error|10=121|]
2017/09/19 14:01:06:606: FIXPump: Received data on connection {BOAFXTRADES} [8=FIX.4.3|9=138|35=3|56=Portware2Trades|49=BOA-FIX|52=20170919-18:01:06|34=12170|43=Y|122=20170914-14:40:18|45=141692|371=0|372=Q|373=5|58=Internal error|10=114|]
2017/09/19 14:01:06:606: FIXPump: Received data on connection {BOAFXTRADES} [8=FIX.4.3|9=138|35=3|56=Portware2Trades|49=BOA-FIX|52=20170919-18:01:06|34=12171|43=Y|122=20170914-14:40:18|45=141693|371=0|372=Q|373=5|58=Internal error|10=116|]
2017/09/19 14:01:06:606: FIXPump: Received data on connection {BOAFXTRADES} [8=FIX.4.3|9=138|35=3|56=Portware2Trades|49=BOA-FIX|52=20170919-18:01:06|34=12172|43=Y|122=20170914-14:40:18|45=141694|371=0|372=Q|373=5|58=Internal error|10=118|]
2017/09/19 14:01:06:606: FIXPump: Received data on connection {BOAFXTRADES} [8=FIX.4.3|9=138|35=3|56=Portware2Trades|49=BOA-FIX|52=20170919-18:01:06|34=12173|43=Y|122=20170914-14:40:18|45=141695|371=0|372=Q|373=5|58=Internal error|10=120|]
2017/09/19 14:01:06:606: FIXPump: Received data on connection {BOAFXTRADES} [8=FIX.4.3|9=138|35=3|56=Portware2Trades|49=BOA-FIX|52=20170919-18:01:06|34=12174|43=Y|122=20170914-14:40:18|45=141696|371=0|372=Q|373=5|58=Internal error|10=122|]
2017/09/19 14:01:06:606: FIXPump: Received data on connection {BOAFXTRADES} [8=FIX.4.3|9=138|35=3|56=Portware2Trades|49=BOA-FIX|52=20170919-18:01:06|34=12175|43=Y|122=20170914-14:40:18|45=141697|371=0|372=Q|373=5|58=Internal error|10=124|]
2017/09/19 14:01:06:606: FIXPump: Received data on connection {BOAFXTRADES} [8=FIX.4.3|9=138|35=3|56=Portware2Trades|49=BOA-FIX|52=20170919-18:01:06|34=12176|43=Y|122=20170914-14:40:18|45=141698|371=0|372=Q|373=5|58=Internal error|10=126|]
2017/09/19 14:01:06:606: FIXPump: Received data on connection {BOAFXTRADES} [8=FIX.4.3|9=138|35=3|56=Portware2Trades|49=BOA-FIX|52=20170919-18:01:06|34=12177|43=Y|122=20170914-14:40:18|45=141699|371=0|372=Q|373=5|58=Internal error|10=128|]
2017/09/19 14:01:06:606: FIXPump: Received data on connection {BOAFXTRADES} [8=FIX.4.3|9=138|35=3|56=Portware2Trades|49=BOA-FIX|52=20170919-18:01:06|34=12178|43=Y|122=20170914-14:40:18|45=141700|371=0|372=Q|373=5|58=Internal error|10=112|]
2017/09/19 14:01:06:606: FIXPump: Received data on connection {BOAFXTRADES} [8=FIX.4.3|9=138|35=3|56=Portware2Trades|49=BOA-FIX|52=20170919-18:01:06|34=12179|43=Y|122=20170914-14:40:18|45=141701|371=0|372=Q|373=5|58=Internal error|10=114|]
2017/09/19 14:01:06:606: FIXPump: Received data on connection {BOAFXTRADES} [8=FIX.4.3|9=138|35=3|56=Portware2Trades|49=BOA-FIX|52=20170919-18:01:06|34=12180|43=Y|122=20170914-14:40:18|45=141702|371=0|372=Q|373=5|58=Internal error|10=107|]
2017/09/19 14:01:06:606: FIXPump: Received data on connection {BOAFXTRADES} [8=FIX.4.3|9=138|35=3|56=Portware2Trades|49=BOA-FIX|52=20170919-18:01:06|34=12181|43=Y|122=20170914-14:40:18|45=141703|371=0|372=Q|373=5|58=Internal error|10=109|]
2017/09/19 14:01:06:606: FIXPump: Received data on connection {BOAFXTRADES} [8=FIX.4.3|9=138|35=3|56=Portware2Trades|49=BOA-FIX|52=20170919-18:01:06|34=12182|43=Y|122=20170914-14:40:18|45=141704|371=0|372=Q|373=5|58=Internal error|10=111|]
2017/09/19 14:01:06:606: FIXPump: Received data on connection {BOAFXTRADES} [8=FIX.4.3|9=138|35=3|56=Portware2Trades|49=BOA-FIX|52=20170919-18:01:06|34=12183|43=Y|122=20170914-14:40:18|45=141705|371=0|372=Q|373=5|58=Internal error|10=113|]
2017/09/19 14:01:06:606: FIXPump: Received data on connection {BOAFXTRADES} [8=FIX.4.3|9=138|35=3|56=Portware2Trades|49=BOA-FIX|52=20170919-18:01:06|34=12184|43=Y|122=20170914-14:40:18|45=141706|371=0|372=Q|373=5|58=Internal error|10=115|]
2017/09/19 14:01:06:606: FIXPump: Received data on connection {BOAFXTRADES} [8=FIX.4.3|9=138|35=3|56=Portware2Trades|49=BOA-FIX|52=20170919-18:01:06|34=12185|43=Y|122=20170914-14:40:18|45=141707|371=0|372=Q|373=5|58=Internal error|10=117|]
2017/09/19 14:01:06:606: FIXPump: Received data on connection {BOAFXTRADES} [8=FIX.4.3|9=138|35=3|56=Portware2Trades|49=BOA-FIX|52=20170919-18:01:06|34=12186|43=Y|122=20170914-14:40:18|45=141708|371=0|372=Q|373=5|58=Internal error|10=119|]
2017/09/19 14:01:06:606: FIXPump: Received data on connection {BOAFXTRADES} [8=FIX.4.3|9=138|35=3|56=Portware2Trades|49=BOA-FIX|52=20170919-18:01:06|34=12187|43=Y|122=20170914-14:40:18|45=141709|371=0|372=Q|373=5|58=Internal error|10=121|]
2017/09/19 14:01:06:607: FIXPump: Received data on connection {BOAFXTRADES} [8=FIX.4.3|9=138|35=3|56=Portware2Trades|49=BOA-FIX|52=20170919-18:01:06|34=12188|43=Y|122=20170914-14:40:18|45=141710|371=0|372=Q|373=5|58=Internal error|10=114|]
2017/09/19 14:01:06:607: FIXPump: Received data on connection {BOAFXTRADES} [8=FIX.4.3|9=138|35=3|56=Portware2Trades|49=BOA-FIX|52=20170919-18:01:06|34=12189|43=Y|122=20170914-14:40:18|45=141711|371=0|372=Q|373=5|58=Internal error|10=116|]
2017/09/19 14:01:06:607: FIXPump: Received data on connection {BOAFXTRADES} [8=FIX.4.3|9=138|35=3|56=Portware2Trades|49=BOA-FIX|52=20170919-18:01:06|34=12190|43=Y|122=20170914-14:40:18|45=141712|371=0|372=Q|373=5|58=Internal error|10=109|]
2017/09/19 14:01:06:607: FIXPump: Received data on connection {BOAFXTRADES} [8=FIX.4.3|9=138|35=3|56=Portware2Trades|49=BOA-FIX|52=20170919-18:01:06|34=12191|43=Y|122=20170914-14:40:18|45=141713|371=0|372=Q|373=5|58=Internal error|10=111|]
2017/09/19 14:01:06:607: FIXPump: Received data on connection {BOAFXTRADES} [8=FIX.4.3|9=138|35=3|56=Portware2Trades|49=BOA-FIX|52=20170919-18:01:06|34=12192|43=Y|122=20170914-14:40:18|45=141714|371=0|372=Q|373=5|58=Internal error|10=113|]
2017/09/19 14:01:06:607: FIXPump: Received data on connection {BOAFXTRADES} [8=FIX.4.3|9=138|35=3|56=Portware2Trades|49=BOA-FIX|52=20170919-18:01:06|34=12193|43=Y|122=20170914-14:40:18|45=141715|371=0|372=Q|373=5|58=Internal error|10=115|]
2017/09/19 14:01:06:607: FIXPump: Received data on connection {BOAFXTRADES} [8=FIX.4.3|9=138|35=3|56=Portware2Trades|49=BOA-FIX|52=20170919-18:01:06|34=12194|43=Y|122=20170914-14:40:18|45=141716|371=0|372=Q|373=5|58=Internal error|10=117|]
2017/09/19 14:01:06:607: FIXPump: Received data on connection {BOAFXTRADES} [8=FIX.4.3|9=138|35=3|56=Portware2Trades|49=BOA-FIX|52=20170919-18:01:06|34=12195|43=Y|122=20170914-14:40:18|45=141717|371=0|372=Q|373=5|58=Internal error|10=119|]
2017/09/19 14:01:06:607: FIXPump: Received data on connection {BOAFXTRADES} [8=FIX.4.3|9=138|35=3|56=Portware2Trades|49=BOA-FIX|52=20170919-18:01:06|34=12196|43=Y|122=20170914-14:40:18|45=141718|371=0|372=Q|373=5|58=Internal error|10=121|]
2017/09/19 14:01:06:607: FIXPump: Received data on connection {BOAFXTRADES} [8=FIX.4.3|9=138|35=3|56=Portware2Trades|49=BOA-FIX|52=20170919-18:01:06|34=12197|43=Y|122=20170914-14:40:18|45=141719|371=0|372=Q|373=5|58=Internal error|10=123|]
2017/09/19 14:01:06:607: FIXPump: Received data on connection {BOAFXTRADES} [8=FIX.4.3|9=138|35=3|56=Portware2Trades|49=BOA-FIX|52=20170919-18:01:06|34=12198|43=Y|122=20170914-14:40:18|45=141720|371=0|372=Q|373=5|58=Internal error|10=116|]
2017/09/19 14:01:06:607: FIXPump: Received data on connection {BOAFXTRADES} [8=FIX.4.3|9=138|35=3|56=Portware2Trades|49=BOA-FIX|52=20170919-18:01:06|34=12199|43=Y|122=20170914-14:40:18|45=141721|371=0|372=Q|373=5|58=Internal error|10=118|]
2017/09/19 14:01:06:607: FIXPump: Received data on connection {BOAFXTRADES} [8=FIX.4.3|9=138|35=3|56=Portware2Trades|49=BOA-FIX|52=20170919-18:01:06|34=12200|43=Y|122=20170914-14:40:18|45=141722|371=0|372=Q|373=5|58=Internal error|10=102|]
2017/09/19 14:01:06:607: FIXPump: Received data on connection {BOAFXTRADES} [8=FIX.4.3|9=138|35=3|56=Portware2Trades|49=BOA-FIX|52=20170919-18:01:06|34=12201|43=Y|122=20170914-14:40:18|45=141723|371=0|372=Q|373=5|58=Internal error|10=104|]
2017/09/19 14:01:06:607: FIXPump: Received data on connection {BOAFXTRADES} [8=FIX.4.3|9=138|35=3|56=Portware2Trades|49=BOA-FIX|52=20170919-18:01:06|34=12202|43=Y|122=20170914-14:40:18|45=141724|371=0|372=Q|373=5|58=Internal error|10=106|]
2017/09/19 14:01:06:607: FIXPump: Received data on connection {BOAFXTRADES} [8=FIX.4.3|9=138|35=3|56=Portware2Trades|49=BOA-FIX|52=20170919-18:01:06|34=12203|43=Y|122=20170914-14:40:18|45=141725|371=0|372=Q|373=5|58=Internal error|10=108|]
2017/09/19 14:01:06:607: FIXPump: Received data on connection {BOAFXTRADES} [8=FIX.4.3|9=138|35=3|56=Portware2Trades|49=BOA-FIX|52=20170919-18:01:06|34=12204|43=Y|122=20170914-14:40:18|45=141726|371=0|372=Q|373=5|58=Internal error|10=110|]
2017/09/19 14:01:06:607: FIXPump: Received data on connection {BOAFXTRADES} [8=FIX.4.3|9=138|35=3|56=Portware2Trades|49=BOA-FIX|52=20170919-18:01:06|34=12205|43=Y|122=20170914-14:40:18|45=141727|371=0|372=Q|373=5|58=Internal error|10=112|]
2017/09/19 14:01:06:607: FIXPump: Received data on connection {BOAFXTRADES} [8=FIX.4.3|9=138|35=3|56=Portware2Trades|49=BOA-FIX|52=20170919-18:01:06|34=12206|43=Y|122=20170914-14:40:18|45=141728|371=0|372=Q|373=5|58=Internal error|10=114|]
2017/09/19 14:01:06:607: FIXPump: Received data on connection {BOAFXTRADES} [8=FIX.4.3|9=138|35=3|56=Portware2Trades|49=BOA-FIX|52=20170919-18:01:06|34=12207|43=Y|122=20170914-14:40:18|45=141729|371=0|372=Q|373=5|58=Internal error|10=116|]
2017/09/19 14:01:06:607: FIXPump: Received data on connection {BOAFXTRADES} [8=FIX.4.3|9=138|35=3|56=Portware2Trades|49=BOA-FIX|52=20170919-18:01:06|34=12208|43=Y|122=20170914-14:40:18|45=141730|371=0|372=Q|373=5|58=Internal error|10=109|]
2017/09/19 14:01:06:607: FIXPump: Received data on connection {BOAFXTRADES} [8=FIX.4.3|9=138|35=3|56=Portware2Trades|49=BOA-FIX|52=20170919-18:01:06|34=12209|43=Y|122=20170914-14:40:18|45=141731|371=0|372=Q|373=5|58=Internal error|10=111|]
2017/09/19 14:01:06:607: FIXPump: Received data on connection {BOAFXTRADES} [8=FIX.4.3|9=138|35=3|56=Portware2Trades|49=BOA-FIX|52=20170919-18:01:06|34=12210|43=Y|122=20170914-14:40:18|45=141732|371=0|372=Q|373=5|58=Internal error|10=104|]
2017/09/19 14:01:06:607: FIXPump: Received data on connection {BOAFXTRADES} [8=FIX.4.3|9=138|35=3|56=Portware2Trades|49=BOA-FIX|52=20170919-18:01:06|34=12211|43=Y|122=20170914-14:40:18|45=141733|371=0|372=Q|373=5|58=Internal error|10=106|]
2017/09/19 14:01:06:607: FIXPump: Received data on connection {BOAFXTRADES} [8=FIX.4.3|9=138|35=3|56=Portware2Trades|49=BOA-FIX|52=20170919-18:01:06|34=12212|43=Y|122=20170914-14:40:18|45=141734|371=0|372=Q|373=5|58=Internal error|10=108|]
2017/09/19 14:01:06:607: FIXPump: Received data on connection {BOAFXTRADES} [8=FIX.4.3|9=138|35=3|56=Portware2Trades|49=BOA-FIX|52=20170919-18:01:06|34=12213|43=Y|122=20170914-14:40:18|45=141735|371=0|372=Q|373=5|58=Internal error|10=110|]
2017/09/19 14:01:06:607: FIXPump: Received data on connection {BOAFXTRADES} [8=FIX.4.3|9=138|35=3|56=Portware2Trades|49=BOA-FIX|52=20170919-18:01:06|34=12214|43=Y|122=20170914-14:40:18|45=141736|371=0|372=Q|373=5|58=Internal error|10=112|]
2017/09/19 14:01:06:607: FIXPump: Received data on connection {BOAFXTRADES} [8=FIX.4.3|9=138|35=3|56=Portware2Trades|49=BOA-FIX|52=20170919-18:01:06|34=12215|43=Y|122=20170914-14:40:18|45=141737|371=0|372=Q|373=5|58=Internal error|10=114|]
2017/09/19 14:01:06:607: FIXPump: Received data on connection {BOAFXTRADES} [8=FIX.4.3|9=138|35=3|56=Portware2Trades|49=BOA-FIX|52=20170919-18:01:06|34=12216|43=Y|122=20170914-14:40:18|45=141738|371=0|372=Q|373=5|58=Internal error|10=116|]
2017/09/19 14:01:06:607: FIXPump: Received data on connection {BOAFXTRADES} [8=FIX.4.3|9=138|35=3|56=Portware2Trades|49=BOA-FIX|52=20170919-18:01:06|34=12217|43=Y|122=20170914-14:40:18|45=141739|371=0|372=Q|373=5|58=Internal error|10=118|]
2017/09/19 14:01:06:607: FIXPump: Received data on connection {BOAFXTRADES} [8=FIX.4.3|9=138|35=3|56=Portware2Trades|49=BOA-FIX|52=20170919-18:01:06|34=12218|43=Y|122=20170914-14:40:18|45=141740|371=0|372=Q|373=5|58=Internal error|10=111|]
2017/09/19 14:01:06:607: FIXPump: Received data on connection {BOAFXTRADES} [8=FIX.4.3|9=138|35=3|56=Portware2Trades|49=BOA-FIX|52=20170919-18:01:06|34=12219|43=Y|122=20170914-14:40:18|45=141741|371=0|372=Q|373=5|58=Internal error|10=113|]
2017/09/19 14:01:06:607: FIXPump: Received data on connection {BOAFXTRADES} [8=FIX.4.3|9=138|35=3|56=Portware2Trades|49=BOA-FIX|52=20170919-18:01:06|34=12220|43=Y|122=20170914-14:40:18|45=141742|371=0|372=Q|373=5|58=Internal error|10=106|]
2017/09/19 14:01:06:607: FIXPump: Received data on connection {BOAFXTRADES} [8=FIX.4.3|9=138|35=3|56=Portware2Trades|49=BOA-FIX|52=20170919-18:01:06|34=12221|43=Y|122=20170914-14:40:18|45=141743|371=0|372=Q|373=5|58=Internal error|10=108|]
2017/09/19 14:01:06:607: FIXPump: Received data on connection {BOAFXTRADES} [8=FIX.4.3|9=138|35=3|56=Portware2Trades|49=BOA-FIX|52=20170919-18:01:06|34=12222|43=Y|122=20170914-14:40:18|45=141744|371=0|372=Q|373=5|58=Internal error|10=110|]
2017/09/19 14:01:06:607: FIXPump: Received data on connection {BOAFXTRADES} [8=FIX.4.3|9=138|35=3|56=Portware2Trades|49=BOA-FIX|52=20170919-18:01:06|34=12223|43=Y|122=20170914-14:40:18|45=141745|371=0|372=Q|373=5|58=Internal error|10=112|]
2017/09/19 14:01:06:607: FIXPump: Received data on connection {BOAFXTRADES} [8=FIX.4.3|9=138|35=3|56=Portware2Trades|49=BOA-FIX|52=20170919-18:01:06|34=12224|43=Y|122=20170914-14:40:18|45=141746|371=0|372=Q|373=5|58=Internal error|10=114|]
2017/09/19 14:01:06:607: FIXPump: Received data on connection {BOAFXTRADES} [8=FIX.4.3|9=138|35=3|56=Portware2Trades|49=BOA-FIX|52=20170919-18:01:06|34=12225|43=Y|122=20170914-14:40:18|45=141747|371=0|372=Q|373=5|58=Internal error|10=116|]
2017/09/19 14:01:06:607: FIXPump: Received data on connection {BOAFXTRADES} [8=FIX.4.3|9=138|35=3|56=Portware2Trades|49=BOA-FIX|52=20170919-18:01:06|34=12226|43=Y|122=20170914-14:40:18|45=141748|371=0|372=Q|373=5|58=Internal error|10=118|]
2017/09/19 14:01:06:607: FIXPump: Received data on connection {BOAFXTRADES} [8=FIX.4.3|9=138|35=3|56=Portware2Trades|49=BOA-FIX|52=20170919-18:01:06|34=12227|43=Y|122=20170914-14:40:18|45=141749|371=0|372=Q|373=5|58=Internal error|10=120|]
2017/09/19 14:01:06:607: FIXPump: Received data on connection {BOAFXTRADES} [8=FIX.4.3|9=138|35=3|56=Portware2Trades|49=BOA-FIX|52=20170919-18:01:06|34=12228|43=Y|122=20170914-14:40:18|45=141750|371=0|372=Q|373=5|58=Internal error|10=113|]
2017/09/19 14:01:06:607: FIXPump: Received data on connection {BOAFXTRADES} [8=FIX.4.3|9=138|35=3|56=Portware2Trades|49=BOA-FIX|52=20170919-18:01:06|34=12229|43=Y|122=20170914-14:40:18|45=141751|371=0|372=Q|373=5|58=Internal error|10=115|]
2017/09/19 14:01:06:607: FIXPump: Received data on connection {BOAFXTRADES} [8=FIX.4.3|9=138|35=3|56=Portware2Trades|49=BOA-FIX|52=20170919-18:01:06|34=12230|43=Y|122=20170914-14:40:18|45=141752|371=0|372=Q|373=5|58=Internal error|10=108|]
2017/09/19 14:01:06:607: FIXPump: Received data on connection {BOAFXTRADES} [8=FIX.4.3|9=138|35=3|56=Portware2Trades|49=BOA-FIX|52=20170919-18:01:06|34=12231|43=Y|122=20170914-14:40:18|45=141753|371=0|372=Q|373=5|58=Internal error|10=110|]
2017/09/19 14:01:06:607: FIXPump: Received data on connection {BOAFXTRADES} [8=FIX.4.3|9=138|35=3|56=Portware2Trades|49=BOA-FIX|52=20170919-18:01:06|34=12232|43=Y|122=20170914-14:40:18|45=141754|371=0|372=Q|373=5|58=Internal error|10=112|]
2017/09/19 14:01:06:607: FIXPump: Received data on connection {BOAFXTRADES} [8=FIX.4.3|9=138|35=3|56=Portware2Trades|49=BOA-FIX|52=20170919-18:01:06|34=12233|43=Y|122=20170914-14:40:18|45=141755|371=0|372=Q|373=5|58=Internal error|10=114|]
2017/09/19 14:01:06:607: FIXPump: Received data on connection {BOAFXTRADES} [8=FIX.4.3|9=138|35=3|56=Portware2Trades|49=BOA-FIX|52=20170919-18:01:06|34=12234|43=Y|122=20170914-14:40:18|45=141756|371=0|372=Q|373=5|58=Internal error|10=116|]
2017/09/19 14:01:06:607: FIXPump: Received data on connection {BOAFXTRADES} [8=FIX.4.3|9=138|35=3|56=Portware2Trades|49=BOA-FIX|52=20170919-18:01:06|34=12235|43=Y|122=20170914-14:40:18|45=141757|371=0|372=Q|373=5|58=Internal error|10=118|]
2017/09/19 14:01:06:607: FIXPump: Received data on connection {BOAFXTRADES} [8=FIX.4.3|9=138|35=3|56=Portware2Trades|49=BOA-FIX|52=20170919-18:01:06|34=12236|43=Y|122=20170914-14:40:18|45=141758|371=0|372=Q|373=5|58=Internal error|10=120|]
2017/09/19 14:01:06:607: FIXPump: Received data on connection {BOAFXTRADES} [8=FIX.4.3|9=138|35=3|56=Portware2Trades|49=BOA-FIX|52=20170919-18:01:06|34=12237|43=Y|122=20170914-14:40:18|45=141759|371=0|372=Q|373=5|58=Internal error|10=122|]
2017/09/19 14:01:06:607: FIXPump: Received data on connection {BOAFXTRADES} [8=FIX.4.3|9=138|35=3|56=Portware2Trades|49=BOA-FIX|52=20170919-18:01:06|34=12238|43=Y|122=20170914-14:40:18|45=141760|371=0|372=Q|373=5|58=Internal error|10=115|]
2017/09/19 14:01:06:607: FIXPump: Received data on connection {BOAFXTRADES} [8=FIX.4.3|9=138|35=3|56=Portware2Trades|49=BOA-FIX|52=20170919-18:01:06|34=12239|43=Y|122=20170914-14:40:18|45=141761|371=0|372=Q|373=5|58=Internal error|10=117|]
2017/09/19 14:01:06:607: FIXPump: Received data on connection {BOAFXTRADES} [8=FIX.4.3|9=138|35=3|56=Portware2Trades|49=BOA-FIX|52=20170919-18:01:06|34=12240|43=Y|122=20170914-14:40:18|45=141762|371=0|372=Q|373=5|58=Internal error|10=110|]
2017/09/19 14:01:06:607: FIXPump: Received data on connection {BOAFXTRADES} [8=FIX.4.3|9=138|35=3|56=Portware2Trades|49=BOA-FIX|52=20170919-18:01:06|34=12241|43=Y|122=20170914-14:40:18|45=141763|371=0|372=Q|373=5|58=Internal error|10=112|]
2017/09/19 14:01:06:607: FIXPump: Received data on connection {BOAFXTRADES} [8=FIX.4.3|9=138|35=3|56=Portware2Trades|49=BOA-FIX|52=20170919-18:01:06|34=12242|43=Y|122=20170914-14:40:18|45=141764|371=0|372=Q|373=5|58=Internal error|10=114|]
2017/09/19 14:01:06:607: FIXPump: Received data on connection {BOAFXTRADES} [8=FIX.4.3|9=138|35=3|56=Portware2Trades|49=BOA-FIX|52=20170919-18:01:06|34=12243|43=Y|122=20170914-14:40:18|45=141765|371=0|372=Q|373=5|58=Internal error|10=116|]
2017/09/19 14:01:06:607: FIXPump: Received data on connection {BOAFXTRADES} [8=FIX.4.3|9=138|35=3|56=Portware2Trades|49=BOA-FIX|52=20170919-18:01:06|34=12244|43=Y|122=20170914-14:40:18|45=141766|371=0|372=Q|373=5|58=Internal error|10=118|]
2017/09/19 14:01:06:607: FIXPump: Received data on connection {BOAFXTRADES} [8=FIX.4.3|9=138|35=3|56=Portware2Trades|49=BOA-FIX|52=20170919-18:01:06|34=12245|43=Y|122=20170914-14:40:18|45=141767|371=0|372=Q|373=5|58=Internal error|10=120|]
2017/09/19 14:01:06:607: FIXPump: Received data on connection {BOAFXTRADES} [8=FIX.4.3|9=138|35=3|56=Portware2Trades|49=BOA-FIX|52=20170919-18:01:06|34=12246|43=Y|122=20170914-14:40:18|45=141768|371=0|372=Q|373=5|58=Internal error|10=122|]
2017/09/19 14:01:06:607: FIXPump: Received data on connection {BOAFXTRADES} [8=FIX.4.3|9=138|35=3|56=Portware2Trades|49=BOA-FIX|52=20170919-18:01:06|34=12247|43=Y|122=20170914-14:40:18|45=141769|371=0|372=Q|373=5|58=Internal error|10=124|]
2017/09/19 14:01:06:607: FIXPump: Received data on connection {BOAFXTRADES} [8=FIX.4.3|9=138|35=3|56=Portware2Trades|49=BOA-FIX|52=20170919-18:01:06|34=12248|43=Y|122=20170914-14:40:18|45=141770|371=0|372=Q|373=5|58=Internal error|10=117|]
2017/09/19 14:01:06:607: FIXPump: Received data on connection {BOAFXTRADES} [8=FIX.4.3|9=138|35=3|56=Portware2Trades|49=BOA-FIX|52=20170919-18:01:06|34=12249|43=Y|122=20170914-14:40:18|45=141771|371=0|372=Q|373=5|58=Internal error|10=119|]
2017/09/19 14:01:06:607: FIXPump: Received data on connection {BOAFXTRADES} [8=FIX.4.3|9=138|35=3|56=Portware2Trades|49=BOA-FIX|52=20170919-18:01:06|34=12250|43=Y|122=20170914-14:40:18|45=141772|371=0|372=Q|373=5|58=Internal error|10=112|]
2017/09/19 14:01:06:607: FIXPump: Received data on connection {BOAFXTRADES} [8=FIX.4.3|9=138|35=3|56=Portware2Trades|49=BOA-FIX|52=20170919-18:01:06|34=12251|43=Y|122=20170914-14:40:18|45=141773|371=0|372=Q|373=5|58=Internal error|10=114|]
2017/09/19 14:01:06:607: FIXPump: Received data on connection {BOAFXTRADES} [8=FIX.4.3|9=138|35=3|56=Portware2Trades|49=BOA-FIX|52=20170919-18:01:06|34=12252|43=Y|122=20170914-14:40:18|45=141774|371=0|372=Q|373=5|58=Internal error|10=116|]
2017/09/19 14:01:06:607: FIXPump: Received data on connection {BOAFXTRADES} [8=FIX.4.3|9=138|35=3|56=Portware2Trades|49=BOA-FIX|52=20170919-18:01:06|34=12253|43=Y|122=20170914-14:40:18|45=141775|371=0|372=Q|373=5|58=Internal error|10=118|]
2017/09/19 14:01:06:607: FIXPump: Received data on connection {BOAFXTRADES} [8=FIX.4.3|9=138|35=3|56=Portware2Trades|49=BOA-FIX|52=20170919-18:01:06|34=12254|43=Y|122=20170914-14:40:18|45=141776|371=0|372=Q|373=5|58=Internal error|10=120|]
2017/09/19 14:01:06:607: FIXPump: Received data on connection {BOAFXTRADES} [8=FIX.4.3|9=138|35=3|56=Portware2Trades|49=BOA-FIX|52=20170919-18:01:06|34=12255|43=Y|122=20170914-14:40:18|45=141777|371=0|372=Q|373=5|58=Internal error|10=122|]
2017/09/19 14:01:06:607: FIXPump: Received data on connection {BOAFXTRADES} [8=FIX.4.3|9=138|35=3|56=Portware2Trades|49=BOA-FIX|52=20170919-18:01:06|34=12256|43=Y|122=20170914-14:40:18|45=141778|371=0|372=Q|373=5|58=Internal error|10=124|]
2017/09/19 14:01:06:607: FIXPump: Received data on connection {BOAFXTRADES} [8=FIX.4.3|9=138|35=3|56=Portware2Trades|49=BOA-FIX|52=20170919-18:01:06|34=12257|43=Y|122=20170914-14:40:18|45=141779|371=0|372=Q|373=5|58=Internal error|10=126|]
2017/09/19 14:01:06:607: FIXPump: Received data on connection {BOAFXTRADES} [8=FIX.4.3|9=138|35=3|56=Portware2Trades|49=BOA-FIX|52=20170919-18:01:06|34=12258|43=Y|122=20170914-14:40:18|45=141780|371=0|372=Q|373=5|58=Internal error|10=119|]
2017/09/19 14:01:06:607: FIXPump: Received data on connection {BOAFXTRADES} [8=FIX.4.3|9=138|35=3|56=Portware2Trades|49=BOA-FIX|52=20170919-18:01:06|34=12259|43=Y|122=20170914-14:40:18|45=141781|371=0|372=Q|373=5|58=Internal error|10=121|]
2017/09/19 14:01:06:607: FIXPump: Received data on connection {BOAFXTRADES} [8=FIX.4.3|9=138|35=3|56=Portware2Trades|49=BOA-FIX|52=20170919-18:01:06|34=12260|43=Y|122=20170914-14:40:18|45=141782|371=0|372=Q|373=5|58=Internal error|10=114|]
2017/09/19 14:01:06:607: FIXPump: Received data on connection {BOAFXTRADES} [8=FIX.4.3|9=138|35=3|56=Portware2Trades|49=BOA-FIX|52=20170919-18:01:06|34=12261|43=Y|122=20170914-14:40:18|45=141783|371=0|372=Q|373=5|58=Internal error|10=116|]
2017/09/19 14:01:06:607: FIXPump: Received data on connection {BOAFXTRADES} [8=FIX.4.3|9=138|35=3|56=Portware2Trades|49=BOA-FIX|52=20170919-18:01:06|34=12262|43=Y|122=20170914-14:40:18|45=141784|371=0|372=Q|373=5|58=Internal error|10=118|]
2017/09/19 14:01:06:607: FIXPump: Received data on connection {BOAFXTRADES} [8=FIX.4.3|9=138|35=3|56=Portware2Trades|49=BOA-FIX|52=20170919-18:01:06|34=12263|43=Y|122=20170914-14:40:18|45=141785|371=0|372=Q|373=5|58=Internal error|10=120|]
2017/09/19 14:01:06:607: FIXPump: Received data on connection {BOAFXTRADES} [8=FIX.4.3|9=138|35=3|56=Portware2Trades|49=BOA-FIX|52=20170919-18:01:06|34=12264|43=Y|122=20170914-14:40:18|45=141786|371=0|372=Q|373=5|58=Internal error|10=122|]
2017/09/19 14:01:06:607: FIXPump: Received data on connection {BOAFXTRADES} [8=FIX.4.3|9=138|35=3|56=Portware2Trades|49=BOA-FIX|52=20170919-18:01:06|34=12265|43=Y|122=20170914-14:40:18|45=141787|371=0|372=Q|373=5|58=Internal error|10=124|]
2017/09/19 14:01:06:607: FIXPump: Received data on connection {BOAFXTRADES} [8=FIX.4.3|9=138|35=3|56=Portware2Trades|49=BOA-FIX|52=20170919-18:01:06|34=12266|43=Y|122=20170914-14:40:18|45=141788|371=0|372=Q|373=5|58=Internal error|10=126|]
2017/09/19 14:01:06:607: FIXPump: Received data on connection {BOAFXTRADES} [8=FIX.4.3|9=138|35=3|56=Portware2Trades|49=BOA-FIX|52=20170919-18:01:06|34=12267|43=Y|122=20170914-14:40:18|45=141789|371=0|372=Q|373=5|58=Internal error|10=128|]
2017/09/19 14:01:06:607: FIXPump: Received data on connection {BOAFXTRADES} [8=FIX.4.3|9=138|35=3|56=Portware2Trades|49=BOA-FIX|52=20170919-18:01:06|34=12268|43=Y|122=20170914-14:40:18|45=141790|371=0|372=Q|373=5|58=Internal error|10=121|]
2017/09/19 14:01:06:607: FIXPump: Received data on connection {BOAFXTRADES} [8=FIX.4.3|9=138|35=3|56=Portware2Trades|49=BOA-FIX|52=20170919-18:01:06|34=12269|43=Y|122=20170914-14:40:18|45=141791|371=0|372=Q|373=5|58=Internal error|10=123|]
2017/09/19 14:01:06:607: FIXPump: Received data on connection {BOAFXTRADES} [8=FIX.4.3|9=138|35=3|56=Portware2Trades|49=BOA-FIX|52=20170919-18:01:06|34=12270|43=Y|122=20170914-14:40:18|45=141792|371=0|372=Q|373=5|58=Internal error|10=116|]
2017/09/19 14:01:06:607: FIXPump: Received data on connection {BOAFXTRADES} [8=FIX.4.3|9=138|35=3|56=Portware2Trades|49=BOA-FIX|52=20170919-18:01:06|34=12271|43=Y|122=20170914-14:40:18|45=141793|371=0|372=Q|373=5|58=Internal error|10=118|]
2017/09/19 14:01:06:607: FIXPump: Received data on connection {BOAFXTRADES} [8=FIX.4.3|9=138|35=3|56=Portware2Trades|49=BOA-FIX|52=20170919-18:01:06|34=12272|43=Y|122=20170914-14:40:18|45=141794|371=0|372=Q|373=5|58=Internal error|10=120|]
2017/09/19 14:01:06:607: FIXPump: Received data on connection {BOAFXTRADES} [8=FIX.4.3|9=138|35=3|56=Portware2Trades|49=BOA-FIX|52=20170919-18:01:06|34=12273|43=Y|122=20170914-14:40:18|45=141795|371=0|372=Q|373=5|58=Internal error|10=122|]
2017/09/19 14:01:06:607: FIXPump: Received data on connection {BOAFXTRADES} [8=FIX.4.3|9=138|35=3|56=Portware2Trades|49=BOA-FIX|52=20170919-18:01:06|34=12274|43=Y|122=20170914-14:40:18|45=141796|371=0|372=Q|373=5|58=Internal error|10=124|]
2017/09/19 14:01:06:607: FIXPump: Received data on connection {BOAFXTRADES} [8=FIX.4.3|9=138|35=3|56=Portware2Trades|49=BOA-FIX|52=20170919-18:01:06|34=12275|43=Y|122=20170914-14:40:18|45=141797|371=0|372=Q|373=5|58=Internal error|10=126|]
2017/09/19 14:01:06:607: FIXPump: Received data on connection {BOAFXTRADES} [8=FIX.4.3|9=138|35=3|56=Portware2Trades|49=BOA-FIX|52=20170919-18:01:06|34=12276|43=Y|122=20170914-14:40:18|45=141798|371=0|372=Q|373=5|58=Internal error|10=128|]
2017/09/19 14:01:06:607: FIXPump: Received data on connection {BOAFXTRADES} [8=FIX.4.3|9=138|35=3|56=Portware2Trades|49=BOA-FIX|52=20170919-18:01:06|34=12277|43=Y|122=20170914-14:40:18|45=141799|371=0|372=Q|373=5|58=Internal error|10=130|]
2017/09/19 14:01:06:607: FIXPump: Received data on connection {BOAFXTRADES} [8=FIX.4.3|9=138|35=3|56=Portware2Trades|49=BOA-FIX|52=20170919-18:01:06|34=12278|43=Y|122=20170914-14:40:18|45=141800|371=0|372=Q|373=5|58=Internal error|10=114|]
2017/09/19 14:01:06:607: FIXPump: Received data on connection {BOAFXTRADES} [8=FIX.4.3|9=138|35=3|56=Portware2Trades|49=BOA-FIX|52=20170919-18:01:06|34=12279|43=Y|122=20170914-14:40:18|45=141801|371=0|372=Q|373=5|58=Internal error|10=116|]
2017/09/19 14:01:06:607: FIXPump: Received data on connection {BOAFXTRADES} [8=FIX.4.3|9=138|35=3|56=Portware2Trades|49=BOA-FIX|52=20170919-18:01:06|34=12280|43=Y|122=20170914-14:40:18|45=141802|371=0|372=Q|373=5|58=Internal error|10=109|]
2017/09/19 14:01:06:607: FIXPump: Received data on connection {BOAFXTRADES} [8=FIX.4.3|9=138|35=3|56=Portware2Trades|49=BOA-FIX|52=20170919-18:01:06|34=12281|43=Y|122=20170914-14:40:18|45=141803|371=0|372=Q|373=5|58=Internal error|10=111|]
2017/09/19 14:01:06:607: FIXPump: Received data on connection {BOAFXTRADES} [8=FIX.4.3|9=138|35=3|56=Portware2Trades|49=BOA-FIX|52=20170919-18:01:06|34=12282|43=Y|122=20170914-14:40:18|45=141804|371=0|372=Q|373=5|58=Internal error|10=113|]
2017/09/19 14:01:06:607: FIXPump: Received data on connection {BOAFXTRADES} [8=FIX.4.3|9=138|35=3|56=Portware2Trades|49=BOA-FIX|52=20170919-18:01:06|34=12283|43=Y|122=20170914-14:40:18|45=141805|371=0|372=Q|373=5|58=Internal error|10=115|]
2017/09/19 14:01:06:607: FIXPump: Received data on connection {BOAFXTRADES} [8=FIX.4.3|9=138|35=3|56=Portware2Trades|49=BOA-FIX|52=20170919-18:01:06|34=12284|43=Y|122=20170914-14:40:18|45=141806|371=0|372=Q|373=5|58=Internal error|10=117|]
2017/09/19 14:01:06:607: FIXPump: Received data on connection {BOAFXTRADES} [8=FIX.4.3|9=138|35=3|56=Portware2Trades|49=BOA-FIX|52=20170919-18:01:06|34=12285|43=Y|122=20170914-14:40:18|45=141807|371=0|372=Q|373=5|58=Internal error|10=119|]
2017/09/19 14:01:06:607: FIXPump: Received data on connection {BOAFXTRADES} [8=FIX.4.3|9=138|35=3|56=Portware2Trades|49=BOA-FIX|52=20170919-18:01:06|34=12286|43=Y|122=20170914-14:40:18|45=141808|371=0|372=Q|373=5|58=Internal error|10=121|]
2017/09/19 14:01:06:607: FIXPump: Received data on connection {BOAFXTRADES} [8=FIX.4.3|9=138|35=3|56=Portware2Trades|49=BOA-FIX|52=20170919-18:01:06|34=12287|43=Y|122=20170914-14:40:18|45=141809|371=0|372=Q|373=5|58=Internal error|10=123|]
2017/09/19 14:01:06:607: FIXPump: Received data on connection {BOAFXTRADES} [8=FIX.4.3|9=138|35=3|56=Portware2Trades|49=BOA-FIX|52=20170919-18:01:06|34=12288|43=Y|122=20170914-14:40:18|45=141810|371=0|372=Q|373=5|58=Internal error|10=116|]
2017/09/19 14:01:06:607: FIXPump: Received data on connection {BOAFXTRADES} [8=FIX.4.3|9=138|35=3|56=Portware2Trades|49=BOA-FIX|52=20170919-18:01:06|34=12289|43=Y|122=20170914-14:40:18|45=141811|371=0|372=Q|373=5|58=Internal error|10=118|]
2017/09/19 14:01:06:607: FIXPump: Received data on connection {BOAFXTRADES} [8=FIX.4.3|9=138|35=3|56=Portware2Trades|49=BOA-FIX|52=20170919-18:01:06|34=12290|43=Y|122=20170914-14:40:18|45=141812|371=0|372=Q|373=5|58=Internal error|10=111|]
2017/09/19 14:01:06:607: FIXPump: Received data on connection {BOAFXTRADES} [8=FIX.4.3|9=138|35=3|56=Portware2Trades|49=BOA-FIX|52=20170919-18:01:06|34=12291|43=Y|122=20170914-14:40:18|45=141813|371=0|372=Q|373=5|58=Internal error|10=113|]
2017/09/19 14:01:06:607: FIXPump: Received data on connection {BOAFXTRADES} [8=FIX.4.3|9=138|35=3|56=Portware2Trades|49=BOA-FIX|52=20170919-18:01:06|34=12292|43=Y|122=20170914-14:40:18|45=141814|371=0|372=Q|373=5|58=Internal error|10=115|]
2017/09/19 14:01:06:607: FIXPump: Received data on connection {BOAFXTRADES} [8=FIX.4.3|9=138|35=3|56=Portware2Trades|49=BOA-FIX|52=20170919-18:01:06|34=12293|43=Y|122=20170914-14:40:18|45=141815|371=0|372=Q|373=5|58=Internal error|10=117|]
2017/09/19 14:01:06:607: FIXPump: Received data on connection {BOAFXTRADES} [8=FIX.4.3|9=138|35=3|56=Portware2Trades|49=BOA-FIX|52=20170919-18:01:06|34=12294|43=Y|122=20170914-14:40:18|45=141816|371=0|372=Q|373=5|58=Internal error|10=119|]
2017/09/19 14:01:06:607: FIXPump: Received data on connection {BOAFXTRADES} [8=FIX.4.3|9=138|35=3|56=Portware2Trades|49=BOA-FIX|52=20170919-18:01:06|34=12295|43=Y|122=20170914-14:40:18|45=141817|371=0|372=Q|373=5|58=Internal error|10=121|]
2017/09/19 14:01:06:607: FIXPump: Received data on connection {BOAFXTRADES} [8=FIX.4.3|9=138|35=3|56=Portware2Trades|49=BOA-FIX|52=20170919-18:01:06|34=12296|43=Y|122=20170914-14:40:18|45=141818|371=0|372=Q|373=5|58=Internal error|10=123|]
2017/09/19 14:01:06:607: FIXPump: Received data on connection {BOAFXTRADES} [8=FIX.4.3|9=138|35=3|56=Portware2Trades|49=BOA-FIX|52=20170919-18:01:06|34=12297|43=Y|122=20170914-14:40:18|45=141819|371=0|372=Q|373=5|58=Internal error|10=125|]
2017/09/19 14:01:06:607: FIXPump: Received data on connection {BOAFXTRADES} [8=FIX.4.3|9=138|35=3|56=Portware2Trades|49=BOA-FIX|52=20170919-18:01:06|34=12298|43=Y|122=20170914-14:40:18|45=141820|371=0|372=Q|373=5|58=Internal error|10=118|]
2017/09/19 14:01:06:607: FIXPump: Received data on connection {BOAFXTRADES} [8=FIX.4.3|9=138|35=3|56=Portware2Trades|49=BOA-FIX|52=20170919-18:01:06|34=12299|43=Y|122=20170914-14:40:18|45=141821|371=0|372=Q|373=5|58=Internal error|10=120|]
2017/09/19 14:01:06:607: FIXPump: Received data on connection {BOAFXTRADES} [8=FIX.4.3|9=138|35=3|56=Portware2Trades|49=BOA-FIX|52=20170919-18:01:06|34=12300|43=Y|122=20170914-14:40:18|45=141822|371=0|372=Q|373=5|58=Internal error|10=104|]
2017/09/19 14:01:06:607: FIXPump: Received data on connection {BOAFXTRADES} [8=FIX.4.3|9=138|35=3|56=Portware2Trades|49=BOA-FIX|52=20170919-18:01:06|34=12301|43=Y|122=20170914-14:40:18|45=141823|371=0|372=Q|373=5|58=Internal error|10=106|]
2017/09/19 14:01:06:607: FIXPump: Received data on connection {BOAFXTRADES} [8=FIX.4.3|9=138|35=3|56=Portware2Trades|49=BOA-FIX|52=20170919-18:01:06|34=12302|43=Y|122=20170914-14:40:18|45=141824|371=0|372=Q|373=5|58=Internal error|10=108|]
2017/09/19 14:01:06:607: FIXPump: Received data on connection {BOAFXTRADES} [8=FIX.4.3|9=138|35=3|56=Portware2Trades|49=BOA-FIX|52=20170919-18:01:06|34=12303|43=Y|122=20170914-14:40:18|45=141825|371=0|372=Q|373=5|58=Internal error|10=110|]
2017/09/19 14:01:06:607: FIXPump: Received data on connection {BOAFXTRADES} [8=FIX.4.3|9=138|35=3|56=Portware2Trades|49=BOA-FIX|52=20170919-18:01:06|34=12304|43=Y|122=20170914-14:40:18|45=141826|371=0|372=Q|373=5|58=Internal error|10=112|]
2017/09/19 14:01:06:607: FIXPump: Received data on connection {BOAFXTRADES} [8=FIX.4.3|9=138|35=3|56=Portware2Trades|49=BOA-FIX|52=20170919-18:01:06|34=12305|43=Y|122=20170914-14:40:18|45=141827|371=0|372=Q|373=5|58=Internal error|10=114|]
2017/09/19 14:01:06:607: FIXPump: Received data on connection {BOAFXTRADES} [8=FIX.4.3|9=138|35=3|56=Portware2Trades|49=BOA-FIX|52=20170919-18:01:06|34=12306|43=Y|122=20170914-14:40:18|45=141828|371=0|372=Q|373=5|58=Internal error|10=116|]
2017/09/19 14:01:06:607: FIXPump: Received data on connection {BOAFXTRADES} [8=FIX.4.3|9=138|35=3|56=Portware2Trades|49=BOA-FIX|52=20170919-18:01:06|34=12307|43=Y|122=20170914-14:40:18|45=141829|371=0|372=Q|373=5|58=Internal error|10=118|]
2017/09/19 14:01:06:607: FIXPump: Received data on connection {BOAFXTRADES} [8=FIX.4.3|9=138|35=3|56=Portware2Trades|49=BOA-FIX|52=20170919-18:01:06|34=12308|43=Y|122=20170914-14:40:18|45=141830|371=0|372=Q|373=5|58=Internal error|10=111|]
2017/09/19 14:01:06:607: FIXPump: Received data on connection {BOAFXTRADES} [8=FIX.4.3|9=138|35=3|56=Portware2Trades|49=BOA-FIX|52=20170919-18:01:06|34=12309|43=Y|122=20170914-14:40:18|45=141831|371=0|372=Q|373=5|58=Internal error|10=113|]
2017/09/19 14:01:06:607: FIXPump: Received data on connection {BOAFXTRADES} [8=FIX.4.3|9=138|35=3|56=Portware2Trades|49=BOA-FIX|52=20170919-18:01:06|34=12310|43=Y|122=20170914-14:40:18|45=141832|371=0|372=Q|373=5|58=Internal error|10=106|]
2017/09/19 14:01:06:607: FIXPump: Received data on connection {BOAFXTRADES} [8=FIX.4.3|9=138|35=3|56=Portware2Trades|49=BOA-FIX|52=20170919-18:01:06|34=12311|43=Y|122=20170914-14:40:18|45=141833|371=0|372=Q|373=5|58=Internal error|10=108|]
2017/09/19 14:01:06:607: FIXPump: Received data on connection {BOAFXTRADES} [8=FIX.4.3|9=138|35=3|56=Portware2Trades|49=BOA-FIX|52=20170919-18:01:06|34=12312|43=Y|122=20170914-14:40:18|45=141834|371=0|372=Q|373=5|58=Internal error|10=110|]
2017/09/19 14:01:06:607: FIXPump: Received data on connection {BOAFXTRADES} [8=FIX.4.3|9=138|35=3|56=Portware2Trades|49=BOA-FIX|52=20170919-18:01:06|34=12313|43=Y|122=20170914-14:40:18|45=141835|371=0|372=Q|373=5|58=Internal error|10=112|]
2017/09/19 14:01:06:607: FIXPump: Received data on connection {BOAFXTRADES} [8=FIX.4.3|9=138|35=3|56=Portware2Trades|49=BOA-FIX|52=20170919-18:01:06|34=12314|43=Y|122=20170914-14:40:18|45=141836|371=0|372=Q|373=5|58=Internal error|10=114|]
2017/09/19 14:01:06:607: FIXPump: Received data on connection {BOAFXTRADES} [8=FIX.4.3|9=138|35=3|56=Portware2Trades|49=BOA-FIX|52=20170919-18:01:06|34=12315|43=Y|122=20170914-14:40:18|45=141837|371=0|372=Q|373=5|58=Internal error|10=116|]
2017/09/19 14:01:06:607: FIXPump: Received data on connection {BOAFXTRADES} [8=FIX.4.3|9=138|35=3|56=Portware2Trades|49=BOA-FIX|52=20170919-18:01:06|34=12316|43=Y|122=20170914-14:40:18|45=141838|371=0|372=Q|373=5|58=Internal error|10=118|]
2017/09/19 14:01:06:607: FIXPump: Received data on connection {BOAFXTRADES} [8=FIX.4.3|9=138|35=3|56=Portware2Trades|49=BOA-FIX|52=20170919-18:01:06|34=12317|43=Y|122=20170914-14:40:18|45=141839|371=0|372=Q|373=5|58=Internal error|10=120|]
2017/09/19 14:01:06:607: FIXPump: Received data on connection {BOAFXTRADES} [8=FIX.4.3|9=138|35=3|56=Portware2Trades|49=BOA-FIX|52=20170919-18:01:06|34=12318|43=Y|122=20170914-14:40:18|45=141840|371=0|372=Q|373=5|58=Internal error|10=113|]
2017/09/19 14:01:06:607: FIXPump: Received data on connection {BOAFXTRADES} [8=FIX.4.3|9=138|35=3|56=Portware2Trades|49=BOA-FIX|52=20170919-18:01:06|34=12319|43=Y|122=20170914-14:40:18|45=141841|371=0|372=Q|373=5|58=Internal error|10=115|]
2017/09/19 14:01:06:607: FIXPump: Received data on connection {BOAFXTRADES} [8=FIX.4.3|9=138|35=3|56=Portware2Trades|49=BOA-FIX|52=20170919-18:01:06|34=12320|43=Y|122=20170914-14:40:18|45=141842|371=0|372=Q|373=5|58=Internal error|10=108|]
2017/09/19 14:01:06:607: FIXPump: Received data on connection {BOAFXTRADES} [8=FIX.4.3|9=138|35=3|56=Portware2Trades|49=BOA-FIX|52=20170919-18:01:06|34=12321|43=Y|122=20170914-14:40:18|45=141843|371=0|372=Q|373=5|58=Internal error|10=110|]
2017/09/19 14:01:06:607: FIXPump: Received data on connection {BOAFXTRADES} [8=FIX.4.3|9=138|35=3|56=Portware2Trades|49=BOA-FIX|52=20170919-18:01:06|34=12322|43=Y|122=20170914-14:40:18|45=141844|371=0|372=Q|373=5|58=Internal error|10=112|]
2017/09/19 14:01:06:607: FIXPump: Received data on connection {BOAFXTRADES} [8=FIX.4.3|9=138|35=3|56=Portware2Trades|49=BOA-FIX|52=20170919-18:01:06|34=12323|43=Y|122=20170914-14:40:18|45=141845|371=0|372=Q|373=5|58=Internal error|10=114|]
2017/09/19 14:01:06:607: FIXPump: Received data on connection {BOAFXTRADES} [8=FIX.4.3|9=138|35=3|56=Portware2Trades|49=BOA-FIX|52=20170919-18:01:06|34=12324|43=Y|122=20170914-14:40:18|45=141846|371=0|372=Q|373=5|58=Internal error|10=116|]
2017/09/19 14:01:06:607: FIXPump: Received data on connection {BOAFXTRADES} [8=FIX.4.3|9=138|35=3|56=Portware2Trades|49=BOA-FIX|52=20170919-18:01:06|34=12325|43=Y|122=20170914-14:40:18|45=141847|371=0|372=Q|373=5|58=Internal error|10=118|]
2017/09/19 14:01:06:607: FIXPump: Received data on connection {BOAFXTRADES} [8=FIX.4.3|9=138|35=3|56=Portware2Trades|49=BOA-FIX|52=20170919-18:01:06|34=12326|43=Y|122=20170914-14:40:18|45=141848|371=0|372=Q|373=5|58=Internal error|10=120|]
2017/09/19 14:01:06:607: FIXPump: Received data on connection {BOAFXTRADES} [8=FIX.4.3|9=138|35=3|56=Portware2Trades|49=BOA-FIX|52=20170919-18:01:06|34=12327|43=Y|122=20170914-14:40:18|45=141849|371=0|372=Q|373=5|58=Internal error|10=122|]
2017/09/19 14:01:06:607: FIXPump: Received data on connection {BOAFXTRADES} [8=FIX.4.3|9=138|35=3|56=Portware2Trades|49=BOA-FIX|52=20170919-18:01:06|34=12328|43=Y|122=20170914-14:40:18|45=141850|371=0|372=Q|373=5|58=Internal error|10=115|]
2017/09/19 14:01:06:607: FIXPump: Received data on connection {BOAFXTRADES} [8=FIX.4.3|9=138|35=3|56=Portware2Trades|49=BOA-FIX|52=20170919-18:01:06|34=12329|43=Y|122=20170914-14:40:18|45=141851|371=0|372=Q|373=5|58=Internal error|10=117|]
2017/09/19 14:01:06:607: FIXPump: Received data on connection {BOAFXTRADES} [8=FIX.4.3|9=138|35=3|56=Portware2Trades|49=BOA-FIX|52=20170919-18:01:06|34=12330|43=Y|122=20170914-14:40:18|45=141852|371=0|372=Q|373=5|58=Internal error|10=110|]
2017/09/19 14:01:06:607: FIXPump: Received data on connection {BOAFXTRADES} [8=FIX.4.3|9=138|35=3|56=Portware2Trades|49=BOA-FIX|52=20170919-18:01:06|34=12331|43=Y|122=20170914-14:40:18|45=141853|371=0|372=Q|373=5|58=Internal error|10=112|]
2017/09/19 14:01:06:607: FIXPump: Received data on connection {BOAFXTRADES} [8=FIX.4.3|9=138|35=3|56=Portware2Trades|49=BOA-FIX|52=20170919-18:01:06|34=12332|43=Y|122=20170914-14:40:18|45=141854|371=0|372=Q|373=5|58=Internal error|10=114|]
2017/09/19 14:01:06:607: FIXPump: Received data on connection {BOAFXTRADES} [8=FIX.4.3|9=138|35=3|56=Portware2Trades|49=BOA-FIX|52=20170919-18:01:06|34=12333|43=Y|122=20170914-14:40:18|45=141855|371=0|372=Q|373=5|58=Internal error|10=116|]
2017/09/19 14:01:06:621: FIXPump: Received data on connection {BOAFXTRADES} [8=FIX.4.3|9=138|35=3|56=Portware2Trades|49=BOA-FIX|52=20170919-18:01:06|34=12334|43=Y|122=20170914-14:40:18|45=141856|371=0|372=Q|373=5|58=Internal error|10=118|]
2017/09/19 14:01:06:621: FIXPump: Received data on connection {BOAFXTRADES} [8=FIX.4.3|9=138|35=3|56=Portware2Trades|49=BOA-FIX|52=20170919-18:01:06|34=12335|43=Y|122=20170914-14:40:18|45=141857|371=0|372=Q|373=5|58=Internal error|10=120|]
2017/09/19 14:01:06:621: FIXPump: Received data on connection {BOAFXTRADES} [8=FIX.4.3|9=138|35=3|56=Portware2Trades|49=BOA-FIX|52=20170919-18:01:06|34=12336|43=Y|122=20170914-14:40:18|45=141858|371=0|372=Q|373=5|58=Internal error|10=122|]
2017/09/19 14:01:06:621: FIXPump: Received data on connection {BOAFXTRADES} [8=FIX.4.3|9=138|35=3|56=Portware2Trades|49=BOA-FIX|52=20170919-18:01:06|34=12337|43=Y|122=20170914-14:40:18|45=141859|371=0|372=Q|373=5|58=Internal error|10=124|]
2017/09/19 14:01:06:621: FIXPump: Received data on connection {BOAFXTRADES} [8=FIX.4.3|9=138|35=3|56=Portware2Trades|49=BOA-FIX|52=20170919-18:01:06|34=12338|43=Y|122=20170914-14:40:18|45=141860|371=0|372=Q|373=5|58=Internal error|10=117|]
2017/09/19 14:01:06:621: FIXPump: Received data on connection {BOAFXTRADES} [8=FIX.4.3|9=138|35=3|56=Portware2Trades|49=BOA-FIX|52=20170919-18:01:06|34=12339|43=Y|122=20170914-14:40:18|45=141861|371=0|372=Q|373=5|58=Internal error|10=119|]
2017/09/19 14:01:06:621: FIXPump: Received data on connection {BOAFXTRADES} [8=FIX.4.3|9=138|35=3|56=Portware2Trades|49=BOA-FIX|52=20170919-18:01:06|34=12340|43=Y|122=20170914-14:40:18|45=141862|371=0|372=Q|373=5|58=Internal error|10=112|]
2017/09/19 14:01:06:621: FIXPump: Received data on connection {BOAFXTRADES} [8=FIX.4.3|9=138|35=3|56=Portware2Trades|49=BOA-FIX|52=20170919-18:01:06|34=12341|43=Y|122=20170914-14:40:18|45=141863|371=0|372=Q|373=5|58=Internal error|10=114|]
2017/09/19 14:01:06:621: FIXPump: Received data on connection {BOAFXTRADES} [8=FIX.4.3|9=138|35=3|56=Portware2Trades|49=BOA-FIX|52=20170919-18:01:06|34=12342|43=Y|122=20170914-14:40:18|45=141864|371=0|372=Q|373=5|58=Internal error|10=116|]
2017/09/19 14:01:06:621: FIXPump: Received data on connection {BOAFXTRADES} [8=FIX.4.3|9=138|35=3|56=Portware2Trades|49=BOA-FIX|52=20170919-18:01:06|34=12343|43=Y|122=20170914-14:40:18|45=141865|371=0|372=Q|373=5|58=Internal error|10=118|]
2017/09/19 14:01:06:621: FIXPump: Received data on connection {BOAFXTRADES} [8=FIX.4.3|9=138|35=3|56=Portware2Trades|49=BOA-FIX|52=20170919-18:01:06|34=12344|43=Y|122=20170914-14:40:18|45=141866|371=0|372=Q|373=5|58=Internal error|10=120|]
2017/09/19 14:01:06:621: FIXPump: Received data on connection {BOAFXTRADES} [8=FIX.4.3|9=138|35=3|56=Portware2Trades|49=BOA-FIX|52=20170919-18:01:06|34=12345|43=Y|122=20170914-14:40:18|45=141867|371=0|372=Q|373=5|58=Internal error|10=122|]
2017/09/19 14:01:06:621: FIXPump: Received data on connection {BOAFXTRADES} [8=FIX.4.3|9=138|35=3|56=Portware2Trades|49=BOA-FIX|52=20170919-18:01:06|34=12346|43=Y|122=20170914-14:40:18|45=141868|371=0|372=Q|373=5|58=Internal error|10=124|]
2017/09/19 14:01:06:621: FIXPump: Received data on connection {BOAFXTRADES} [8=FIX.4.3|9=138|35=3|56=Portware2Trades|49=BOA-FIX|52=20170919-18:01:06|34=12347|43=Y|122=20170914-14:40:18|45=141869|371=0|372=Q|373=5|58=Internal error|10=126|]
2017/09/19 14:01:06:621: FIXPump: Received data on connection {BOAFXTRADES} [8=FIX.4.3|9=138|35=3|56=Portware2Trades|49=BOA-FIX|52=20170919-18:01:06|34=12348|43=Y|122=20170914-14:40:18|45=141870|371=0|372=Q|373=5|58=Internal error|10=119|]
2017/09/19 14:01:06:621: FIXPump: Received data on connection {BOAFXTRADES} [8=FIX.4.3|9=138|35=3|56=Portware2Trades|49=BOA-FIX|52=20170919-18:01:06|34=12349|43=Y|122=20170914-14:40:18|45=141871|371=0|372=Q|373=5|58=Internal error|10=121|]
2017/09/19 14:01:06:621: FIXPump: Received data on connection {BOAFXTRADES} [8=FIX.4.3|9=138|35=3|56=Portware2Trades|49=BOA-FIX|52=20170919-18:01:06|34=12350|43=Y|122=20170914-14:40:18|45=141872|371=0|372=Q|373=5|58=Internal error|10=114|]
2017/09/19 14:01:06:621: FIXPump: Received data on connection {BOAFXTRADES} [8=FIX.4.3|9=138|35=3|56=Portware2Trades|49=BOA-FIX|52=20170919-18:01:06|34=12351|43=Y|122=20170914-14:40:18|45=141873|371=0|372=Q|373=5|58=Internal error|10=116|]
2017/09/19 14:01:06:621: FIXPump: Received data on connection {BOAFXTRADES} [8=FIX.4.3|9=138|35=3|56=Portware2Trades|49=BOA-FIX|52=20170919-18:01:06|34=12352|43=Y|122=20170914-14:40:18|45=141874|371=0|372=Q|373=5|58=Internal error|10=118|]
2017/09/19 14:01:06:621: FIXPump: Received data on connection {BOAFXTRADES} [8=FIX.4.3|9=138|35=3|56=Portware2Trades|49=BOA-FIX|52=20170919-18:01:06|34=12353|43=Y|122=20170914-14:40:18|45=141875|371=0|372=Q|373=5|58=Internal error|10=120|]
2017/09/19 14:01:06:621: FIXPump: Received data on connection {BOAFXTRADES} [8=FIX.4.3|9=138|35=3|56=Portware2Trades|49=BOA-FIX|52=20170919-18:01:06|34=12354|43=Y|122=20170914-14:40:18|45=141876|371=0|372=Q|373=5|58=Internal error|10=122|]
2017/09/19 14:01:06:621: FIXPump: Received data on connection {BOAFXTRADES} [8=FIX.4.3|9=138|35=3|56=Portware2Trades|49=BOA-FIX|52=20170919-18:01:06|34=12355|43=Y|122=20170914-14:40:18|45=141877|371=0|372=Q|373=5|58=Internal error|10=124|]
2017/09/19 14:01:06:621: FIXPump: Received data on connection {BOAFXTRADES} [8=FIX.4.3|9=138|35=3|56=Portware2Trades|49=BOA-FIX|52=20170919-18:01:06|34=12356|43=Y|122=20170914-14:40:18|45=141878|371=0|372=Q|373=5|58=Internal error|10=126|]
2017/09/19 14:01:06:621: FIXPump: Received data on connection {BOAFXTRADES} [8=FIX.4.3|9=138|35=3|56=Portware2Trades|49=BOA-FIX|52=20170919-18:01:06|34=12357|43=Y|122=20170914-14:40:18|45=141879|371=0|372=Q|373=5|58=Internal error|10=128|]
2017/09/19 14:01:06:621: FIXPump: Received data on connection {BOAFXTRADES} [8=FIX.4.3|9=138|35=3|56=Portware2Trades|49=BOA-FIX|52=20170919-18:01:06|34=12358|43=Y|122=20170914-14:40:18|45=141880|371=0|372=Q|373=5|58=Internal error|10=121|]
2017/09/19 14:01:06:621: FIXPump: Received data on connection {BOAFXTRADES} [8=FIX.4.3|9=138|35=3|56=Portware2Trades|49=BOA-FIX|52=20170919-18:01:06|34=12359|43=Y|122=20170914-14:40:18|45=141881|371=0|372=Q|373=5|58=Internal error|10=123|]
2017/09/19 14:01:06:621: FIXPump: Received data on connection {BOAFXTRADES} [8=FIX.4.3|9=138|35=3|56=Portware2Trades|49=BOA-FIX|52=20170919-18:01:06|34=12360|43=Y|122=20170914-14:40:18|45=141882|371=0|372=Q|373=5|58=Internal error|10=116|]
2017/09/19 14:01:06:621: FIXPump: Received data on connection {BOAFXTRADES} [8=FIX.4.3|9=138|35=3|56=Portware2Trades|49=BOA-FIX|52=20170919-18:01:06|34=12361|43=Y|122=20170914-14:40:18|45=141883|371=0|372=Q|373=5|58=Internal error|10=118|]
2017/09/19 14:01:06:621: FIXPump: Received data on connection {BOAFXTRADES} [8=FIX.4.3|9=138|35=3|56=Portware2Trades|49=BOA-FIX|52=20170919-18:01:06|34=12362|43=Y|122=20170914-14:40:18|45=141884|371=0|372=Q|373=5|58=Internal error|10=120|]
2017/09/19 14:01:06:621: FIXPump: Received data on connection {BOAFXTRADES} [8=FIX.4.3|9=138|35=3|56=Portware2Trades|49=BOA-FIX|52=20170919-18:01:06|34=12363|43=Y|122=20170914-14:40:18|45=141885|371=0|372=Q|373=5|58=Internal error|10=122|]
2017/09/19 14:01:06:621: FIXPump: Received data on connection {BOAFXTRADES} [8=FIX.4.3|9=138|35=3|56=Portware2Trades|49=BOA-FIX|52=20170919-18:01:06|34=12364|43=Y|122=20170914-14:40:18|45=141886|371=0|372=Q|373=5|58=Internal error|10=124|]
2017/09/19 14:01:06:621: FIXPump: Received data on connection {BOAFXTRADES} [8=FIX.4.3|9=138|35=3|56=Portware2Trades|49=BOA-FIX|52=20170919-18:01:06|34=12365|43=Y|122=20170914-14:40:18|45=141887|371=0|372=Q|373=5|58=Internal error|10=126|]
2017/09/19 14:01:06:621: FIXPump: Received data on connection {BOAFXTRADES} [8=FIX.4.3|9=138|35=3|56=Portware2Trades|49=BOA-FIX|52=20170919-18:01:06|34=12366|43=Y|122=20170914-14:40:18|45=141888|371=0|372=Q|373=5|58=Internal error|10=128|]
2017/09/19 14:01:06:621: FIXPump: Received data on connection {BOAFXTRADES} [8=FIX.4.3|9=138|35=3|56=Portware2Trades|49=BOA-FIX|52=20170919-18:01:06|34=12367|43=Y|122=20170914-14:40:18|45=141889|371=0|372=Q|373=5|58=Internal error|10=130|]
2017/09/19 14:01:06:621: FIXPump: Received data on connection {BOAFXTRADES} [8=FIX.4.3|9=138|35=3|56=Portware2Trades|49=BOA-FIX|52=20170919-18:01:06|34=12368|43=Y|122=20170914-14:40:18|45=141890|371=0|372=Q|373=5|58=Internal error|10=123|]
2017/09/19 14:01:06:621: FIXPump: Received data on connection {BOAFXTRADES} [8=FIX.4.3|9=138|35=3|56=Portware2Trades|49=BOA-FIX|52=20170919-18:01:06|34=12369|43=Y|122=20170914-14:40:18|45=141891|371=0|372=Q|373=5|58=Internal error|10=125|]
2017/09/19 14:01:06:621: FIXPump: Received data on connection {BOAFXTRADES} [8=FIX.4.3|9=138|35=3|56=Portware2Trades|49=BOA-FIX|52=20170919-18:01:06|34=12370|43=Y|122=20170914-14:40:18|45=141892|371=0|372=Q|373=5|58=Internal error|10=118|]
2017/09/19 14:01:06:621: FIXPump: Received data on connection {BOAFXTRADES} [8=FIX.4.3|9=138|35=3|56=Portware2Trades|49=BOA-FIX|52=20170919-18:01:06|34=12371|43=Y|122=20170914-14:40:18|45=141893|371=0|372=Q|373=5|58=Internal error|10=120|]
2017/09/19 14:01:06:621: FIXPump: Received data on connection {BOAFXTRADES} [8=FIX.4.3|9=138|35=3|56=Portware2Trades|49=BOA-FIX|52=20170919-18:01:06|34=12372|43=Y|122=20170914-14:40:18|45=141894|371=0|372=Q|373=5|58=Internal error|10=122|]
2017/09/19 14:01:06:621: FIXPump: Received data on connection {BOAFXTRADES} [8=FIX.4.3|9=138|35=3|56=Portware2Trades|49=BOA-FIX|52=20170919-18:01:06|34=12373|43=Y|122=20170914-14:40:18|45=141895|371=0|372=Q|373=5|58=Internal error|10=124|]
2017/09/19 14:01:06:621: FIXPump: Received data on connection {BOAFXTRADES} [8=FIX.4.3|9=138|35=3|56=Portware2Trades|49=BOA-FIX|52=20170919-18:01:06|34=12374|43=Y|122=20170914-14:40:18|45=141896|371=0|372=Q|373=5|58=Internal error|10=126|]
2017/09/19 14:01:06:621: FIXPump: Received data on connection {BOAFXTRADES} [8=FIX.4.3|9=138|35=3|56=Portware2Trades|49=BOA-FIX|52=20170919-18:01:06|34=12375|43=Y|122=20170914-14:40:18|45=141897|371=0|372=Q|373=5|58=Internal error|10=128|]
2017/09/19 14:01:06:621: FIXPump: Received data on connection {BOAFXTRADES} [8=FIX.4.3|9=138|35=3|56=Portware2Trades|49=BOA-FIX|52=20170919-18:01:06|34=12376|43=Y|122=20170914-14:40:18|45=141898|371=0|372=Q|373=5|58=Internal error|10=130|]
2017/09/19 14:01:06:621: FIXPump: Received data on connection {BOAFXTRADES} [8=FIX.4.3|9=138|35=3|56=Portware2Trades|49=BOA-FIX|52=20170919-18:01:06|34=12377|43=Y|122=20170914-14:40:18|45=141899|371=0|372=Q|373=5|58=Internal error|10=132|]
2017/09/19 14:01:06:621: FIXPump: Received data on connection {BOAFXTRADES} [8=FIX.4.3|9=138|35=3|56=Portware2Trades|49=BOA-FIX|52=20170919-18:01:06|34=12378|43=Y|122=20170914-14:40:18|45=141900|371=0|372=Q|373=5|58=Internal error|10=116|]
2017/09/19 14:01:06:622: FIXPump: Received data on connection {BOAFXTRADES} [8=FIX.4.3|9=138|35=3|56=Portware2Trades|49=BOA-FIX|52=20170919-18:01:06|34=12379|43=Y|122=20170914-14:40:18|45=141901|371=0|372=Q|373=5|58=Internal error|10=118|]
2017/09/19 14:01:06:622: FIXPump: Received data on connection {BOAFXTRADES} [8=FIX.4.3|9=138|35=3|56=Portware2Trades|49=BOA-FIX|52=20170919-18:01:06|34=12380|43=Y|122=20170914-14:40:18|45=141902|371=0|372=Q|373=5|58=Internal error|10=111|]
2017/09/19 14:01:06:622: FIXPump: Received data on connection {BOAFXTRADES} [8=FIX.4.3|9=138|35=3|56=Portware2Trades|49=BOA-FIX|52=20170919-18:01:06|34=12381|43=Y|122=20170914-14:40:18|45=141903|371=0|372=Q|373=5|58=Internal error|10=113|]
2017/09/19 14:01:06:622: FIXPump: Received data on connection {BOAFXTRADES} [8=FIX.4.3|9=138|35=3|56=Portware2Trades|49=BOA-FIX|52=20170919-18:01:06|34=12382|43=Y|122=20170914-14:40:18|45=141904|371=0|372=Q|373=5|58=Internal error|10=115|]
2017/09/19 14:01:06:622: FIXPump: Received data on connection {BOAFXTRADES} [8=FIX.4.3|9=138|35=3|56=Portware2Trades|49=BOA-FIX|52=20170919-18:01:06|34=12383|43=Y|122=20170914-14:40:18|45=141905|371=0|372=Q|373=5|58=Internal error|10=117|]
2017/09/19 14:01:06:622: FIXPump: Received data on connection {BOAFXTRADES} [8=FIX.4.3|9=138|35=3|56=Portware2Trades|49=BOA-FIX|52=20170919-18:01:06|34=12384|43=Y|122=20170914-14:40:18|45=141906|371=0|372=Q|373=5|58=Internal error|10=119|]
2017/09/19 14:01:06:622: FIXPump: Received data on connection {BOAFXTRADES} [8=FIX.4.3|9=138|35=3|56=Portware2Trades|49=BOA-FIX|52=20170919-18:01:06|34=12385|43=Y|122=20170914-14:40:18|45=141907|371=0|372=Q|373=5|58=Internal error|10=121|]
2017/09/19 14:01:06:622: FIXPump: Received data on connection {BOAFXTRADES} [8=FIX.4.3|9=138|35=3|56=Portware2Trades|49=BOA-FIX|52=20170919-18:01:06|34=12386|43=Y|122=20170914-14:40:18|45=141908|371=0|372=Q|373=5|58=Internal error|10=123|]
2017/09/19 14:01:06:622: FIXPump: Received data on connection {BOAFXTRADES} [8=FIX.4.3|9=138|35=3|56=Portware2Trades|49=BOA-FIX|52=20170919-18:01:06|34=12387|43=Y|122=20170914-14:40:18|45=141909|371=0|372=Q|373=5|58=Internal error|10=125|]
2017/09/19 14:01:06:622: FIXPump: Received data on connection {BOAFXTRADES} [8=FIX.4.3|9=138|35=3|56=Portware2Trades|49=BOA-FIX|52=20170919-18:01:06|34=12388|43=Y|122=20170914-14:40:18|45=141910|371=0|372=Q|373=5|58=Internal error|10=118|]
2017/09/19 14:01:06:622: FIXPump: Received data on connection {BOAFXTRADES} [8=FIX.4.3|9=138|35=3|56=Portware2Trades|49=BOA-FIX|52=20170919-18:01:06|34=12389|43=Y|122=20170914-14:40:18|45=141911|371=0|372=Q|373=5|58=Internal error|10=120|]
2017/09/19 14:01:06:622: FIXPump: Received data on connection {BOAFXTRADES} [8=FIX.4.3|9=138|35=3|56=Portware2Trades|49=BOA-FIX|52=20170919-18:01:06|34=12390|43=Y|122=20170914-14:40:18|45=141912|371=0|372=Q|373=5|58=Internal error|10=113|]
2017/09/19 14:01:06:622: FIXPump: Received data on connection {BOAFXTRADES} [8=FIX.4.3|9=138|35=3|56=Portware2Trades|49=BOA-FIX|52=20170919-18:01:06|34=12391|43=Y|122=20170914-14:40:18|45=141913|371=0|372=Q|373=5|58=Internal error|10=115|]
2017/09/19 14:01:06:622: FIXPump: Received data on connection {BOAFXTRADES} [8=FIX.4.3|9=138|35=3|56=Portware2Trades|49=BOA-FIX|52=20170919-18:01:06|34=12392|43=Y|122=20170914-14:40:18|45=141914|371=0|372=Q|373=5|58=Internal error|10=117|]
2017/09/19 14:01:06:622: FIXPump: Received data on connection {BOAFXTRADES} [8=FIX.4.3|9=138|35=3|56=Portware2Trades|49=BOA-FIX|52=20170919-18:01:06|34=12393|43=Y|122=20170914-14:40:18|45=141915|371=0|372=Q|373=5|58=Internal error|10=119|]
2017/09/19 14:01:06:622: FIXPump: Received data on connection {BOAFXTRADES} [8=FIX.4.3|9=138|35=3|56=Portware2Trades|49=BOA-FIX|52=20170919-18:01:06|34=12394|43=Y|122=20170914-14:40:18|45=141916|371=0|372=Q|373=5|58=Internal error|10=121|]
2017/09/19 14:01:06:622: FIXPump: Received data on connection {BOAFXTRADES} [8=FIX.4.3|9=138|35=3|56=Portware2Trades|49=BOA-FIX|52=20170919-18:01:06|34=12395|43=Y|122=20170914-14:40:18|45=141917|371=0|372=Q|373=5|58=Internal error|10=123|]
2017/09/19 14:01:06:622: FIXPump: Received data on connection {BOAFXTRADES} [8=FIX.4.3|9=138|35=3|56=Portware2Trades|49=BOA-FIX|52=20170919-18:01:06|34=12396|43=Y|122=20170914-14:40:18|45=141918|371=0|372=Q|373=5|58=Internal error|10=125|]
2017/09/19 14:01:06:622: FIXPump: Received data on connection {BOAFXTRADES} [8=FIX.4.3|9=138|35=3|56=Portware2Trades|49=BOA-FIX|52=20170919-18:01:06|34=12397|43=Y|122=20170914-14:40:18|45=141919|371=0|372=Q|373=5|58=Internal error|10=127|]
2017/09/19 14:01:06:622: FIXPump: Received data on connection {BOAFXTRADES} [8=FIX.4.3|9=138|35=3|56=Portware2Trades|49=BOA-FIX|52=20170919-18:01:06|34=12398|43=Y|122=20170914-14:40:18|45=141920|371=0|372=Q|373=5|58=Internal error|10=120|]
2017/09/19 14:01:06:622: FIXPump: Received data on connection {BOAFXTRADES} [8=FIX.4.3|9=138|35=3|56=Portware2Trades|49=BOA-FIX|52=20170919-18:01:06|34=12399|43=Y|122=20170914-14:40:18|45=141921|371=0|372=Q|373=5|58=Internal error|10=122|]
2017/09/19 14:01:06:622: FIXPump: Received data on connection {BOAFXTRADES} [8=FIX.4.3|9=138|35=3|56=Portware2Trades|49=BOA-FIX|52=20170919-18:01:06|34=12400|43=Y|122=20170914-14:40:18|45=141922|371=0|372=Q|373=5|58=Internal error|10=106|]
2017/09/19 14:01:06:622: FIXPump: Received data on connection {BOAFXTRADES} [8=FIX.4.3|9=138|35=3|56=Portware2Trades|49=BOA-FIX|52=20170919-18:01:06|34=12401|43=Y|122=20170914-14:40:18|45=141923|371=0|372=Q|373=5|58=Internal error|10=108|]
2017/09/19 14:01:06:622: FIXPump: Received data on connection {BOAFXTRADES} [8=FIX.4.3|9=138|35=3|56=Portware2Trades|49=BOA-FIX|52=20170919-18:01:06|34=12402|43=Y|122=20170914-14:40:18|45=141924|371=0|372=Q|373=5|58=Internal error|10=110|]
2017/09/19 14:01:06:622: FIXPump: Received data on connection {BOAFXTRADES} [8=FIX.4.3|9=138|35=3|56=Portware2Trades|49=BOA-FIX|52=20170919-18:01:06|34=12403|43=Y|122=20170914-14:40:18|45=141925|371=0|372=Q|373=5|58=Internal error|10=112|]
2017/09/19 14:01:06:622: FIXPump: Received data on connection {BOAFXTRADES} [8=FIX.4.3|9=138|35=3|56=Portware2Trades|49=BOA-FIX|52=20170919-18:01:06|34=12404|43=Y|122=20170914-14:40:18|45=141926|371=0|372=Q|373=5|58=Internal error|10=114|]
2017/09/19 14:01:06:622: FIXPump: Received data on connection {BOAFXTRADES} [8=FIX.4.3|9=138|35=3|56=Portware2Trades|49=BOA-FIX|52=20170919-18:01:06|34=12405|43=Y|122=20170914-14:40:18|45=141927|371=0|372=Q|373=5|58=Internal error|10=116|]
2017/09/19 14:01:06:622: FIXPump: Received data on connection {BOAFXTRADES} [8=FIX.4.3|9=138|35=3|56=Portware2Trades|49=BOA-FIX|52=20170919-18:01:06|34=12406|43=Y|122=20170914-14:40:18|45=141928|371=0|372=Q|373=5|58=Internal error|10=118|]
2017/09/19 14:01:06:622: FIXPump: Received data on connection {BOAFXTRADES} [8=FIX.4.3|9=138|35=3|56=Portware2Trades|49=BOA-FIX|52=20170919-18:01:06|34=12407|43=Y|122=20170914-14:40:18|45=141929|371=0|372=Q|373=5|58=Internal error|10=120|]
2017/09/19 14:01:06:622: FIXPump: Received data on connection {BOAFXTRADES} [8=FIX.4.3|9=138|35=3|56=Portware2Trades|49=BOA-FIX|52=20170919-18:01:06|34=12408|43=Y|122=20170914-14:40:18|45=141930|371=0|372=Q|373=5|58=Internal error|10=113|]
2017/09/19 14:01:06:622: FIXPump: Received data on connection {BOAFXTRADES} [8=FIX.4.3|9=138|35=3|56=Portware2Trades|49=BOA-FIX|52=20170919-18:01:06|34=12409|43=Y|122=20170914-14:40:18|45=141931|371=0|372=Q|373=5|58=Internal error|10=115|]
2017/09/19 14:01:06:622: FIXPump: Received data on connection {BOAFXTRADES} [8=FIX.4.3|9=138|35=3|56=Portware2Trades|49=BOA-FIX|52=20170919-18:01:06|34=12410|43=Y|122=20170914-14:40:18|45=141932|371=0|372=Q|373=5|58=Internal error|10=108|]
2017/09/19 14:01:06:622: FIXPump: Received data on connection {BOAFXTRADES} [8=FIX.4.3|9=138|35=3|56=Portware2Trades|49=BOA-FIX|52=20170919-18:01:06|34=12411|43=Y|122=20170914-14:40:18|45=141933|371=0|372=Q|373=5|58=Internal error|10=110|]
2017/09/19 14:01:06:622: FIXPump: Received data on connection {BOAFXTRADES} [8=FIX.4.3|9=138|35=3|56=Portware2Trades|49=BOA-FIX|52=20170919-18:01:06|34=12412|43=Y|122=20170914-14:40:18|45=141934|371=0|372=Q|373=5|58=Internal error|10=112|]
2017/09/19 14:01:06:622: FIXPump: Received data on connection {BOAFXTRADES} [8=FIX.4.3|9=138|35=3|56=Portware2Trades|49=BOA-FIX|52=20170919-18:01:06|34=12413|43=Y|122=20170914-14:40:18|45=141935|371=0|372=Q|373=5|58=Internal error|10=114|]
2017/09/19 14:01:06:622: FIXPump: Received data on connection {BOAFXTRADES} [8=FIX.4.3|9=138|35=3|56=Portware2Trades|49=BOA-FIX|52=20170919-18:01:06|34=12414|43=Y|122=20170914-14:40:18|45=141936|371=0|372=Q|373=5|58=Internal error|10=116|]
2017/09/19 14:01:06:622: FIXPump: Received data on connection {BOAFXTRADES} [8=FIX.4.3|9=138|35=3|56=Portware2Trades|49=BOA-FIX|52=20170919-18:01:06|34=12415|43=Y|122=20170914-14:40:18|45=141937|371=0|372=Q|373=5|58=Internal error|10=118|]
2017/09/19 14:01:06:622: FIXPump: Received data on connection {BOAFXTRADES} [8=FIX.4.3|9=138|35=3|56=Portware2Trades|49=BOA-FIX|52=20170919-18:01:06|34=12416|43=Y|122=20170914-14:40:18|45=141938|371=0|372=Q|373=5|58=Internal error|10=120|]
2017/09/19 14:01:06:622: FIXPump: Received data on connection {BOAFXTRADES} [8=FIX.4.3|9=138|35=3|56=Portware2Trades|49=BOA-FIX|52=20170919-18:01:06|34=12417|43=Y|122=20170914-14:40:18|45=141939|371=0|372=Q|373=5|58=Internal error|10=122|]
2017/09/19 14:01:06:622: FIXPump: Received data on connection {BOAFXTRADES} [8=FIX.4.3|9=138|35=3|56=Portware2Trades|49=BOA-FIX|52=20170919-18:01:06|34=12418|43=Y|122=20170914-14:40:18|45=141940|371=0|372=Q|373=5|58=Internal error|10=115|]
2017/09/19 14:01:06:622: FIXPump: Received data on connection {BOAFXTRADES} [8=FIX.4.3|9=138|35=3|56=Portware2Trades|49=BOA-FIX|52=20170919-18:01:06|34=12419|43=Y|122=20170914-14:40:18|45=141941|371=0|372=Q|373=5|58=Internal error|10=117|]
2017/09/19 14:01:06:622: FIXPump: Received data on connection {BOAFXTRADES} [8=FIX.4.3|9=138|35=3|56=Portware2Trades|49=BOA-FIX|52=20170919-18:01:06|34=12420|43=Y|122=20170914-14:40:18|45=141942|371=0|372=Q|373=5|58=Internal error|10=110|]
2017/09/19 14:01:06:622: FIXPump: Received data on connection {BOAFXTRADES} [8=FIX.4.3|9=138|35=3|56=Portware2Trades|49=BOA-FIX|52=20170919-18:01:06|34=12421|43=Y|122=20170914-14:40:18|45=141943|371=0|372=Q|373=5|58=Internal error|10=112|]
2017/09/19 14:01:06:622: FIXPump: Received data on connection {BOAFXTRADES} [8=FIX.4.3|9=138|35=3|56=Portware2Trades|49=BOA-FIX|52=20170919-18:01:06|34=12422|43=Y|122=20170914-14:40:18|45=141944|371=0|372=Q|373=5|58=Internal error|10=114|]
2017/09/19 14:01:06:622: FIXPump: Received data on connection {BOAFXTRADES} [8=FIX.4.3|9=138|35=3|56=Portware2Trades|49=BOA-FIX|52=20170919-18:01:06|34=12423|43=Y|122=20170914-14:40:18|45=141945|371=0|372=Q|373=5|58=Internal error|10=116|]
2017/09/19 14:01:06:622: FIXPump: Received data on connection {BOAFXTRADES} [8=FIX.4.3|9=138|35=3|56=Portware2Trades|49=BOA-FIX|52=20170919-18:01:06|34=12424|43=Y|122=20170914-14:40:18|45=141946|371=0|372=Q|373=5|58=Internal error|10=118|]
2017/09/19 14:01:06:622: FIXPump: Received data on connection {BOAFXTRADES} [8=FIX.4.3|9=138|35=3|56=Portware2Trades|49=BOA-FIX|52=20170919-18:01:06|34=12425|43=Y|122=20170914-14:40:18|45=141947|371=0|372=Q|373=5|58=Internal error|10=120|]
2017/09/19 14:01:06:622: FIXPump: Received data on connection {BOAFXTRADES} [8=FIX.4.3|9=138|35=3|56=Portware2Trades|49=BOA-FIX|52=20170919-18:01:06|34=12426|43=Y|122=20170914-14:40:18|45=141948|371=0|372=Q|373=5|58=Internal error|10=122|]
2017/09/19 14:01:06:622: FIXPump: Received data on connection {BOAFXTRADES} [8=FIX.4.3|9=138|35=3|56=Portware2Trades|49=BOA-FIX|52=20170919-18:01:06|34=12427|43=Y|122=20170914-14:40:18|45=141949|371=0|372=Q|373=5|58=Internal error|10=124|]
2017/09/19 14:01:06:622: FIXPump: Received data on connection {BOAFXTRADES} [8=FIX.4.3|9=138|35=3|56=Portware2Trades|49=BOA-FIX|52=20170919-18:01:06|34=12428|43=Y|122=20170914-14:40:18|45=141950|371=0|372=Q|373=5|58=Internal error|10=117|]
2017/09/19 14:01:06:622: FIXPump: Received data on connection {BOAFXTRADES} [8=FIX.4.3|9=138|35=3|56=Portware2Trades|49=BOA-FIX|52=20170919-18:01:06|34=12429|43=Y|122=20170914-14:40:18|45=141951|371=0|372=Q|373=5|58=Internal error|10=119|]
2017/09/19 14:01:06:622: FIXPump: Received data on connection {BOAFXTRADES} [8=FIX.4.3|9=138|35=3|56=Portware2Trades|49=BOA-FIX|52=20170919-18:01:06|34=12430|43=Y|122=20170914-14:40:18|45=141952|371=0|372=Q|373=5|58=Internal error|10=112|]
2017/09/19 14:01:06:622: FIXPump: Received data on connection {BOAFXTRADES} [8=FIX.4.3|9=138|35=3|56=Portware2Trades|49=BOA-FIX|52=20170919-18:01:06|34=12431|43=Y|122=20170914-14:40:18|45=141953|371=0|372=Q|373=5|58=Internal error|10=114|]
2017/09/19 14:01:06:622: FIXPump: Received data on connection {BOAFXTRADES} [8=FIX.4.3|9=138|35=3|56=Portware2Trades|49=BOA-FIX|52=20170919-18:01:06|34=12432|43=Y|122=20170914-14:40:18|45=141954|371=0|372=Q|373=5|58=Internal error|10=116|]
2017/09/19 14:01:06:622: FIXPump: Received data on connection {BOAFXTRADES} [8=FIX.4.3|9=138|35=3|56=Portware2Trades|49=BOA-FIX|52=20170919-18:01:06|34=12433|43=Y|122=20170914-14:40:18|45=141955|371=0|372=Q|373=5|58=Internal error|10=118|]
2017/09/19 14:01:06:622: FIXPump: Received data on connection {BOAFXTRADES} [8=FIX.4.3|9=138|35=3|56=Portware2Trades|49=BOA-FIX|52=20170919-18:01:06|34=12434|43=Y|122=20170914-14:40:18|45=141956|371=0|372=Q|373=5|58=Internal error|10=120|]
2017/09/19 14:01:06:622: FIXPump: Received data on connection {BOAFXTRADES} [8=FIX.4.3|9=138|35=3|56=Portware2Trades|49=BOA-FIX|52=20170919-18:01:06|34=12435|43=Y|122=20170914-14:40:18|45=141957|371=0|372=Q|373=5|58=Internal error|10=122|]
2017/09/19 14:01:06:622: FIXPump: Received data on connection {BOAFXTRADES} [8=FIX.4.3|9=138|35=3|56=Portware2Trades|49=BOA-FIX|52=20170919-18:01:06|34=12436|43=Y|122=20170914-14:40:18|45=141958|371=0|372=Q|373=5|58=Internal error|10=124|]
2017/09/19 14:01:06:622: FIXPump: Received data on connection {BOAFXTRADES} [8=FIX.4.3|9=138|35=3|56=Portware2Trades|49=BOA-FIX|52=20170919-18:01:06|34=12437|43=Y|122=20170914-14:40:18|45=141959|371=0|372=Q|373=5|58=Internal error|10=126|]
2017/09/19 14:01:06:622: FIXPump: Received data on connection {BOAFXTRADES} [8=FIX.4.3|9=138|35=3|56=Portware2Trades|49=BOA-FIX|52=20170919-18:01:06|34=12438|43=Y|122=20170914-14:40:18|45=141960|371=0|372=Q|373=5|58=Internal error|10=119|]
2017/09/19 14:01:06:622: FIXPump: Received data on connection {BOAFXTRADES} [8=FIX.4.3|9=138|35=3|56=Portware2Trades|49=BOA-FIX|52=20170919-18:01:06|34=12439|43=Y|122=20170914-14:40:18|45=141961|371=0|372=Q|373=5|58=Internal error|10=121|]
2017/09/19 14:01:06:622: FIXPump: Received data on connection {BOAFXTRADES} [8=FIX.4.3|9=138|35=3|56=Portware2Trades|49=BOA-FIX|52=20170919-18:01:06|34=12440|43=Y|122=20170914-14:40:18|45=141962|371=0|372=Q|373=5|58=Internal error|10=114|]
2017/09/19 14:01:06:622: FIXPump: Received data on connection {BOAFXTRADES} [8=FIX.4.3|9=138|35=3|56=Portware2Trades|49=BOA-FIX|52=20170919-18:01:06|34=12441|43=Y|122=20170914-14:40:18|45=141963|371=0|372=Q|373=5|58=Internal error|10=116|]
2017/09/19 14:01:06:622: FIXPump: Received data on connection {BOAFXTRADES} [8=FIX.4.3|9=138|35=3|56=Portware2Trades|49=BOA-FIX|52=20170919-18:01:06|34=12442|43=Y|122=20170914-14:40:18|45=141964|371=0|372=Q|373=5|58=Internal error|10=118|]
2017/09/19 14:01:06:622: FIXPump: Received data on connection {BOAFXTRADES} [8=FIX.4.3|9=138|35=3|56=Portware2Trades|49=BOA-FIX|52=20170919-18:01:06|34=12443|43=Y|122=20170914-14:40:18|45=141965|371=0|372=Q|373=5|58=Internal error|10=120|]
2017/09/19 14:01:06:622: FIXPump: Received data on connection {BOAFXTRADES} [8=FIX.4.3|9=138|35=3|56=Portware2Trades|49=BOA-FIX|52=20170919-18:01:06|34=12444|43=Y|122=20170914-14:40:18|45=141966|371=0|372=Q|373=5|58=Internal error|10=122|]
2017/09/19 14:01:06:622: FIXPump: Received data on connection {BOAFXTRADES} [8=FIX.4.3|9=138|35=3|56=Portware2Trades|49=BOA-FIX|52=20170919-18:01:06|34=12445|43=Y|122=20170914-14:40:18|45=141967|371=0|372=Q|373=5|58=Internal error|10=124|]
2017/09/19 14:01:06:622: FIXPump: Received data on connection {BOAFXTRADES} [8=FIX.4.3|9=138|35=3|56=Portware2Trades|49=BOA-FIX|52=20170919-18:01:06|34=12446|43=Y|122=20170914-14:40:18|45=141968|371=0|372=Q|373=5|58=Internal error|10=126|]
2017/09/19 14:01:06:622: FIXPump: Received data on connection {BOAFXTRADES} [8=FIX.4.3|9=138|35=3|56=Portware2Trades|49=BOA-FIX|52=20170919-18:01:06|34=12447|43=Y|122=20170914-14:40:18|45=141969|371=0|372=Q|373=5|58=Internal error|10=128|]
2017/09/19 14:01:06:622: FIXPump: Received data on connection {BOAFXTRADES} [8=FIX.4.3|9=138|35=3|56=Portware2Trades|49=BOA-FIX|52=20170919-18:01:06|34=12448|43=Y|122=20170914-14:40:18|45=141970|371=0|372=Q|373=5|58=Internal error|10=121|]
2017/09/19 14:01:06:622: FIXPump: Received data on connection {BOAFXTRADES} [8=FIX.4.3|9=138|35=3|56=Portware2Trades|49=BOA-FIX|52=20170919-18:01:06|34=12449|43=Y|122=20170914-14:40:18|45=141971|371=0|372=Q|373=5|58=Internal error|10=123|]
2017/09/19 14:01:06:622: FIXPump: Received data on connection {BOAFXTRADES} [8=FIX.4.3|9=138|35=3|56=Portware2Trades|49=BOA-FIX|52=20170919-18:01:06|34=12450|43=Y|122=20170914-14:40:18|45=141972|371=0|372=Q|373=5|58=Internal error|10=116|]
2017/09/19 14:01:06:622: FIXPump: Received data on connection {BOAFXTRADES} [8=FIX.4.3|9=138|35=3|56=Portware2Trades|49=BOA-FIX|52=20170919-18:01:06|34=12451|43=Y|122=20170914-14:40:18|45=141973|371=0|372=Q|373=5|58=Internal error|10=118|]
